{
  "contractName": "KittyCore",
  "abi": [
    {
      "constant": true,
      "inputs": [
        {
          "name": "_interfaceID",
          "type": "bytes4"
        }
      ],
      "name": "supportsInterface",
      "outputs": [
        {
          "name": "",
          "type": "bool"
        }
      ],
      "payable": false,
      "stateMutability": "view",
      "type": "function"
    },
    {
      "constant": true,
      "inputs": [],
      "name": "cfoAddress",
      "outputs": [
        {
          "name": "",
          "type": "address"
        }
      ],
      "payable": false,
      "stateMutability": "view",
      "type": "function"
    },
    {
      "constant": true,
      "inputs": [
        {
          "name": "_tokenId",
          "type": "uint256"
        },
        {
          "name": "_preferredTransport",
          "type": "string"
        }
      ],
      "name": "tokenMetadata",
      "outputs": [
        {
          "name": "infoUrl",
          "type": "string"
        }
      ],
      "payable": false,
      "stateMutability": "view",
      "type": "function"
    },
    {
      "constant": true,
      "inputs": [],
      "name": "promoCreatedCount",
      "outputs": [
        {
          "name": "",
          "type": "uint256"
        }
      ],
      "payable": false,
      "stateMutability": "view",
      "type": "function"
    },
    {
      "constant": true,
      "inputs": [],
      "name": "name",
      "outputs": [
        {
          "name": "",
          "type": "string"
        }
      ],
      "payable": false,
      "stateMutability": "view",
      "type": "function"
    },
    {
      "constant": false,
      "inputs": [
        {
          "name": "_to",
          "type": "address"
        },
        {
          "name": "_tokenId",
          "type": "uint256"
        }
      ],
      "name": "approve",
      "outputs": [],
      "payable": false,
      "stateMutability": "nonpayable",
      "type": "function"
    },
    {
      "constant": true,
      "inputs": [],
      "name": "ceoAddress",
      "outputs": [
        {
          "name": "",
          "type": "address"
        }
      ],
      "payable": false,
      "stateMutability": "view",
      "type": "function"
    },
    {
      "constant": true,
      "inputs": [],
      "name": "GEN0_STARTING_PRICE",
      "outputs": [
        {
          "name": "",
          "type": "uint256"
        }
      ],
      "payable": false,
      "stateMutability": "view",
      "type": "function"
    },
    {
      "constant": false,
      "inputs": [
        {
          "name": "_address",
          "type": "address"
        }
      ],
      "name": "setSiringAuctionAddress",
      "outputs": [],
      "payable": false,
      "stateMutability": "nonpayable",
      "type": "function"
    },
    {
      "constant": true,
      "inputs": [],
      "name": "totalSupply",
      "outputs": [
        {
          "name": "",
          "type": "uint256"
        }
      ],
      "payable": false,
      "stateMutability": "view",
      "type": "function"
    },
    {
      "constant": true,
      "inputs": [],
      "name": "pregnantKitties",
      "outputs": [
        {
          "name": "",
          "type": "uint256"
        }
      ],
      "payable": false,
      "stateMutability": "view",
      "type": "function"
    },
    {
      "constant": true,
      "inputs": [
        {
          "name": "_kittyId",
          "type": "uint256"
        }
      ],
      "name": "isPregnant",
      "outputs": [
        {
          "name": "",
          "type": "bool"
        }
      ],
      "payable": false,
      "stateMutability": "view",
      "type": "function"
    },
    {
      "constant": true,
      "inputs": [],
      "name": "GEN0_AUCTION_DURATION",
      "outputs": [
        {
          "name": "",
          "type": "uint256"
        }
      ],
      "payable": false,
      "stateMutability": "view",
      "type": "function"
    },
    {
      "constant": true,
      "inputs": [],
      "name": "siringAuction",
      "outputs": [
        {
          "name": "",
          "type": "address"
        }
      ],
      "payable": false,
      "stateMutability": "view",
      "type": "function"
    },
    {
      "constant": false,
      "inputs": [
        {
          "name": "_from",
          "type": "address"
        },
        {
          "name": "_to",
          "type": "address"
        },
        {
          "name": "_tokenId",
          "type": "uint256"
        }
      ],
      "name": "transferFrom",
      "outputs": [],
      "payable": false,
      "stateMutability": "nonpayable",
      "type": "function"
    },
    {
      "constant": false,
      "inputs": [
        {
          "name": "_address",
          "type": "address"
        }
      ],
      "name": "setGeneScienceAddress",
      "outputs": [],
      "payable": false,
      "stateMutability": "nonpayable",
      "type": "function"
    },
    {
      "constant": false,
      "inputs": [
        {
          "name": "_newCEO",
          "type": "address"
        }
      ],
      "name": "setCEO",
      "outputs": [],
      "payable": false,
      "stateMutability": "nonpayable",
      "type": "function"
    },
    {
      "constant": false,
      "inputs": [
        {
          "name": "_newCOO",
          "type": "address"
        }
      ],
      "name": "setCOO",
      "outputs": [],
      "payable": false,
      "stateMutability": "nonpayable",
      "type": "function"
    },
    {
      "constant": false,
      "inputs": [
        {
          "name": "_kittyId",
          "type": "uint256"
        },
        {
          "name": "_startingPrice",
          "type": "uint256"
        },
        {
          "name": "_endingPrice",
          "type": "uint256"
        },
        {
          "name": "_duration",
          "type": "uint256"
        }
      ],
      "name": "createSaleAuction",
      "outputs": [],
      "payable": false,
      "stateMutability": "nonpayable",
      "type": "function"
    },
    {
      "constant": true,
      "inputs": [
        {
          "name": "",
          "type": "uint256"
        }
      ],
      "name": "sireAllowedToAddress",
      "outputs": [
        {
          "name": "",
          "type": "address"
        }
      ],
      "payable": false,
      "stateMutability": "view",
      "type": "function"
    },
    {
      "constant": true,
      "inputs": [
        {
          "name": "_matronId",
          "type": "uint256"
        },
        {
          "name": "_sireId",
          "type": "uint256"
        }
      ],
      "name": "canBreedWith",
      "outputs": [
        {
          "name": "",
          "type": "bool"
        }
      ],
      "payable": false,
      "stateMutability": "view",
      "type": "function"
    },
    {
      "constant": true,
      "inputs": [
        {
          "name": "",
          "type": "uint256"
        }
      ],
      "name": "kittyIndexToApproved",
      "outputs": [
        {
          "name": "",
          "type": "address"
        }
      ],
      "payable": false,
      "stateMutability": "view",
      "type": "function"
    },
    {
      "constant": false,
      "inputs": [
        {
          "name": "_kittyId",
          "type": "uint256"
        },
        {
          "name": "_startingPrice",
          "type": "uint256"
        },
        {
          "name": "_endingPrice",
          "type": "uint256"
        },
        {
          "name": "_duration",
          "type": "uint256"
        }
      ],
      "name": "createSiringAuction",
      "outputs": [],
      "payable": false,
      "stateMutability": "nonpayable",
      "type": "function"
    },
    {
      "constant": false,
      "inputs": [
        {
          "name": "val",
          "type": "uint256"
        }
      ],
      "name": "setAutoBirthFee",
      "outputs": [],
      "payable": false,
      "stateMutability": "nonpayable",
      "type": "function"
    },
    {
      "constant": false,
      "inputs": [
        {
          "name": "_addr",
          "type": "address"
        },
        {
          "name": "_sireId",
          "type": "uint256"
        }
      ],
      "name": "approveSiring",
      "outputs": [],
      "payable": false,
      "stateMutability": "nonpayable",
      "type": "function"
    },
    {
      "constant": false,
      "inputs": [
        {
          "name": "_newCFO",
          "type": "address"
        }
      ],
      "name": "setCFO",
      "outputs": [],
      "payable": false,
      "stateMutability": "nonpayable",
      "type": "function"
    },
    {
      "constant": false,
      "inputs": [
        {
          "name": "_genes",
          "type": "uint256"
        },
        {
          "name": "_owner",
          "type": "address"
        }
      ],
      "name": "createPromoKitty",
      "outputs": [],
      "payable": false,
      "stateMutability": "nonpayable",
      "type": "function"
    },
    {
      "constant": false,
      "inputs": [
        {
          "name": "secs",
          "type": "uint256"
        }
      ],
      "name": "setSecondsPerBlock",
      "outputs": [],
      "payable": false,
      "stateMutability": "nonpayable",
      "type": "function"
    },
    {
      "constant": true,
      "inputs": [],
      "name": "paused",
      "outputs": [
        {
          "name": "",
          "type": "bool"
        }
      ],
      "payable": false,
      "stateMutability": "view",
      "type": "function"
    },
    {
      "constant": true,
      "inputs": [
        {
          "name": "_tokenId",
          "type": "uint256"
        }
      ],
      "name": "ownerOf",
      "outputs": [
        {
          "name": "owner",
          "type": "address"
        }
      ],
      "payable": false,
      "stateMutability": "view",
      "type": "function"
    },
    {
      "constant": true,
      "inputs": [],
      "name": "GEN0_CREATION_LIMIT",
      "outputs": [
        {
          "name": "",
          "type": "uint256"
        }
      ],
      "payable": false,
      "stateMutability": "view",
      "type": "function"
    },
    {
      "constant": true,
      "inputs": [],
      "name": "newContractAddress",
      "outputs": [
        {
          "name": "",
          "type": "address"
        }
      ],
      "payable": false,
      "stateMutability": "view",
      "type": "function"
    },
    {
      "constant": false,
      "inputs": [
        {
          "name": "_address",
          "type": "address"
        }
      ],
      "name": "setSaleAuctionAddress",
      "outputs": [],
      "payable": false,
      "stateMutability": "nonpayable",
      "type": "function"
    },
    {
      "constant": true,
      "inputs": [
        {
          "name": "_owner",
          "type": "address"
        }
      ],
      "name": "balanceOf",
      "outputs": [
        {
          "name": "count",
          "type": "uint256"
        }
      ],
      "payable": false,
      "stateMutability": "view",
      "type": "function"
    },
    {
      "constant": true,
      "inputs": [],
      "name": "secondsPerBlock",
      "outputs": [
        {
          "name": "",
          "type": "uint256"
        }
      ],
      "payable": false,
      "stateMutability": "view",
      "type": "function"
    },
    {
      "constant": false,
      "inputs": [],
      "name": "pause",
      "outputs": [],
      "payable": false,
      "stateMutability": "nonpayable",
      "type": "function"
    },
    {
      "constant": true,
      "inputs": [
        {
          "name": "_owner",
          "type": "address"
        }
      ],
      "name": "tokensOfOwner",
      "outputs": [
        {
          "name": "ownerTokens",
          "type": "uint256[]"
        }
      ],
      "payable": false,
      "stateMutability": "view",
      "type": "function"
    },
    {
      "constant": false,
      "inputs": [
        {
          "name": "_matronId",
          "type": "uint256"
        }
      ],
      "name": "giveBirth",
      "outputs": [
        {
          "name": "",
          "type": "uint256"
        }
      ],
      "payable": false,
      "stateMutability": "nonpayable",
      "type": "function"
    },
    {
      "constant": false,
      "inputs": [],
      "name": "withdrawAuctionBalances",
      "outputs": [],
      "payable": false,
      "stateMutability": "nonpayable",
      "type": "function"
    },
    {
      "constant": true,
      "inputs": [],
      "name": "symbol",
      "outputs": [
        {
          "name": "",
          "type": "string"
        }
      ],
      "payable": false,
      "stateMutability": "view",
      "type": "function"
    },
    {
      "constant": true,
      "inputs": [
        {
          "name": "",
          "type": "uint256"
        }
      ],
      "name": "cooldowns",
      "outputs": [
        {
          "name": "",
          "type": "uint32"
        }
      ],
      "payable": false,
      "stateMutability": "view",
      "type": "function"
    },
    {
      "constant": true,
      "inputs": [
        {
          "name": "",
          "type": "uint256"
        }
      ],
      "name": "kittyIndexToOwner",
      "outputs": [
        {
          "name": "",
          "type": "address"
        }
      ],
      "payable": false,
      "stateMutability": "view",
      "type": "function"
    },
    {
      "constant": false,
      "inputs": [
        {
          "name": "_to",
          "type": "address"
        },
        {
          "name": "_tokenId",
          "type": "uint256"
        }
      ],
      "name": "transfer",
      "outputs": [],
      "payable": false,
      "stateMutability": "nonpayable",
      "type": "function"
    },
    {
      "constant": true,
      "inputs": [],
      "name": "cooAddress",
      "outputs": [
        {
          "name": "",
          "type": "address"
        }
      ],
      "payable": false,
      "stateMutability": "view",
      "type": "function"
    },
    {
      "constant": true,
      "inputs": [],
      "name": "autoBirthFee",
      "outputs": [
        {
          "name": "",
          "type": "uint256"
        }
      ],
      "payable": false,
      "stateMutability": "view",
      "type": "function"
    },
    {
      "constant": true,
      "inputs": [],
      "name": "erc721Metadata",
      "outputs": [
        {
          "name": "",
          "type": "address"
        }
      ],
      "payable": false,
      "stateMutability": "view",
      "type": "function"
    },
    {
      "constant": false,
      "inputs": [
        {
          "name": "_genes",
          "type": "uint256"
        }
      ],
      "name": "createGen0Auction",
      "outputs": [],
      "payable": false,
      "stateMutability": "nonpayable",
      "type": "function"
    },
    {
      "constant": true,
      "inputs": [
        {
          "name": "_kittyId",
          "type": "uint256"
        }
      ],
      "name": "isReadyToBreed",
      "outputs": [
        {
          "name": "",
          "type": "bool"
        }
      ],
      "payable": false,
      "stateMutability": "view",
      "type": "function"
    },
    {
      "constant": true,
      "inputs": [],
      "name": "PROMO_CREATION_LIMIT",
      "outputs": [
        {
          "name": "",
          "type": "uint256"
        }
      ],
      "payable": false,
      "stateMutability": "view",
      "type": "function"
    },
    {
      "constant": false,
      "inputs": [
        {
          "name": "_contractAddress",
          "type": "address"
        }
      ],
      "name": "setMetadataAddress",
      "outputs": [],
      "payable": false,
      "stateMutability": "nonpayable",
      "type": "function"
    },
    {
      "constant": true,
      "inputs": [],
      "name": "saleAuction",
      "outputs": [
        {
          "name": "",
          "type": "address"
        }
      ],
      "payable": false,
      "stateMutability": "view",
      "type": "function"
    },
    {
      "constant": false,
      "inputs": [
        {
          "name": "_sireId",
          "type": "uint256"
        },
        {
          "name": "_matronId",
          "type": "uint256"
        }
      ],
      "name": "bidOnSiringAuction",
      "outputs": [],
      "payable": true,
      "stateMutability": "payable",
      "type": "function"
    },
    {
      "constant": true,
      "inputs": [],
      "name": "gen0CreatedCount",
      "outputs": [
        {
          "name": "",
          "type": "uint256"
        }
      ],
      "payable": false,
      "stateMutability": "view",
      "type": "function"
    },
    {
      "constant": true,
      "inputs": [],
      "name": "geneScience",
      "outputs": [
        {
          "name": "",
          "type": "address"
        }
      ],
      "payable": false,
      "stateMutability": "view",
      "type": "function"
    },
    {
      "constant": false,
      "inputs": [
        {
          "name": "_matronId",
          "type": "uint256"
        },
        {
          "name": "_sireId",
          "type": "uint256"
        }
      ],
      "name": "breedWithAuto",
      "outputs": [],
      "payable": true,
      "stateMutability": "payable",
      "type": "function"
    },
    {
      "inputs": [],
      "payable": false,
      "stateMutability": "nonpayable",
      "type": "constructor"
    },
    {
      "payable": true,
      "stateMutability": "payable",
      "type": "fallback"
    },
    {
      "anonymous": false,
      "inputs": [
        {
          "indexed": false,
          "name": "owner",
          "type": "address"
        },
        {
          "indexed": false,
          "name": "matronId",
          "type": "uint256"
        },
        {
          "indexed": false,
          "name": "sireId",
          "type": "uint256"
        },
        {
          "indexed": false,
          "name": "cooldownEndBlock",
          "type": "uint256"
        }
      ],
      "name": "Pregnant",
      "type": "event"
    },
    {
      "anonymous": false,
      "inputs": [
        {
          "indexed": false,
          "name": "from",
          "type": "address"
        },
        {
          "indexed": false,
          "name": "to",
          "type": "address"
        },
        {
          "indexed": false,
          "name": "tokenId",
          "type": "uint256"
        }
      ],
      "name": "Transfer",
      "type": "event"
    },
    {
      "anonymous": false,
      "inputs": [
        {
          "indexed": false,
          "name": "owner",
          "type": "address"
        },
        {
          "indexed": false,
          "name": "approved",
          "type": "address"
        },
        {
          "indexed": false,
          "name": "tokenId",
          "type": "uint256"
        }
      ],
      "name": "Approval",
      "type": "event"
    },
    {
      "anonymous": false,
      "inputs": [
        {
          "indexed": false,
          "name": "owner",
          "type": "address"
        },
        {
          "indexed": false,
          "name": "kittyId",
          "type": "uint256"
        },
        {
          "indexed": false,
          "name": "matronId",
          "type": "uint256"
        },
        {
          "indexed": false,
          "name": "sireId",
          "type": "uint256"
        },
        {
          "indexed": false,
          "name": "genes",
          "type": "uint256"
        }
      ],
      "name": "Birth",
      "type": "event"
    },
    {
      "anonymous": false,
      "inputs": [
        {
          "indexed": false,
          "name": "newContract",
          "type": "address"
        }
      ],
      "name": "ContractUpgrade",
      "type": "event"
    },
    {
      "constant": false,
      "inputs": [
        {
          "name": "_v2Address",
          "type": "address"
        }
      ],
      "name": "setNewAddress",
      "outputs": [],
      "payable": false,
      "stateMutability": "nonpayable",
      "type": "function"
    },
    {
      "constant": true,
      "inputs": [
        {
          "name": "_id",
          "type": "uint256"
        }
      ],
      "name": "getKitty",
      "outputs": [
        {
          "name": "isGestating",
          "type": "bool"
        },
        {
          "name": "isReady",
          "type": "bool"
        },
        {
          "name": "cooldownIndex",
          "type": "uint256"
        },
        {
          "name": "nextActionAt",
          "type": "uint256"
        },
        {
          "name": "siringWithId",
          "type": "uint256"
        },
        {
          "name": "birthTime",
          "type": "uint256"
        },
        {
          "name": "matronId",
          "type": "uint256"
        },
        {
          "name": "sireId",
          "type": "uint256"
        },
        {
          "name": "generation",
          "type": "uint256"
        },
        {
          "name": "genes",
          "type": "uint256"
        }
      ],
      "payable": false,
      "stateMutability": "view",
      "type": "function"
    },
    {
      "constant": false,
      "inputs": [],
      "name": "unpause",
      "outputs": [],
      "payable": false,
      "stateMutability": "nonpayable",
      "type": "function"
    },
    {
      "constant": false,
      "inputs": [],
      "name": "withdrawBalance",
      "outputs": [],
      "payable": false,
      "stateMutability": "nonpayable",
      "type": "function"
    }
  ],
  "bytecode": "0x60606040526000600260146101000a81548160ff0219169083151502179055506101c060405190810160405280603c63ffffffff1663ffffffff168152602001607863ffffffff1663ffffffff16815260200161012c63ffffffff1663ffffffff16815260200161025863ffffffff1663ffffffff16815260200161070863ffffffff1663ffffffff168152602001610e1063ffffffff1663ffffffff168152602001611c2063ffffffff1663ffffffff16815260200161384063ffffffff1663ffffffff16815260200161708063ffffffff1663ffffffff16815260200161e10063ffffffff1663ffffffff1681526020016201518063ffffffff1663ffffffff1681526020016202a30063ffffffff1663ffffffff1681526020016205460063ffffffff1663ffffffff16815260200162093a8063ffffffff1663ffffffff16815250600390600e62000156929190620007a8565b50600f60055566071afd498d0000600e5534156200017357600080fd5b6001600260146101000a81548160ff021916908315150217905550336000806101000a81548173ffffffffffffffffffffffffffffffffffffffff021916908373ffffffffffffffffffffffffffffffffffffffff16021790555033600260006101000a81548173ffffffffffffffffffffffffffffffffffffffff021916908373ffffffffffffffffffffffffffffffffffffffff1602179055506200025560008060007fffffffffffffffffffffffffffffffffffffffffffffffffffffffffffffffff60006200025c6401000000000262004948176401000000009004565b5062000a00565b6000806200026962000852565b60008863ffffffff16891415156200028057600080fd5b8763ffffffff16881415156200029557600080fd5b8661ffff1687141515620002a857600080fd5b600287811515620002b557fe5b049250600d8361ffff161115620002cb57600d92505b610100604051908101604052808781526020014267ffffffffffffffff168152602001600067ffffffffffffffff1681526020018a63ffffffff1681526020018963ffffffff168152602001600063ffffffff1681526020018461ffff1681526020018861ffff168152509150600160068054806001018281620003509190620008c6565b916000526020600020906002020160008590919091506000820151816000015560208201518160010160006101000a81548167ffffffffffffffff021916908367ffffffffffffffff16021790555060408201518160010160086101000a81548167ffffffffffffffff021916908367ffffffffffffffff16021790555060608201518160010160106101000a81548163ffffffff021916908363ffffffff16021790555060808201518160010160146101000a81548163ffffffff021916908363ffffffff16021790555060a08201518160010160186101000a81548163ffffffff021916908363ffffffff16021790555060c082015181600101601c6101000a81548161ffff021916908361ffff16021790555060e082015181600101601e6101000a81548161ffff021916908361ffff16021790555050500390508063ffffffff1681141515620004a357600080fd5b7f0a5311bd2a6608f08a180df2ee7c5946819a649b204b554bb8e39825b2c50ad58582846060015163ffffffff16856080015163ffffffff168660000151604051808673ffffffffffffffffffffffffffffffffffffffff1673ffffffffffffffffffffffffffffffffffffffff1681526020018581526020018481526020018381526020018281526020019550505050505060405180910390a162000560600086836200056f6401000000000262004355176401000000009004565b80935050505095945050505050565b600860008373ffffffffffffffffffffffffffffffffffffffff1673ffffffffffffffffffffffffffffffffffffffff16815260200190815260200160002060008154809291906001019190505550816007600083815260200190815260200160002060006101000a81548173ffffffffffffffffffffffffffffffffffffffff021916908373ffffffffffffffffffffffffffffffffffffffff160217905550600073ffffffffffffffffffffffffffffffffffffffff168373ffffffffffffffffffffffffffffffffffffffff161415156200070457600860008473ffffffffffffffffffffffffffffffffffffffff1673ffffffffffffffffffffffffffffffffffffffff1681526020019081526020016000206000815480929190600190039190505550600a600082815260200190815260200160002060006101000a81549073ffffffffffffffffffffffffffffffffffffffff02191690556009600082815260200190815260200160002060006101000a81549073ffffffffffffffffffffffffffffffffffffffff02191690555b7fddf252ad1be2c89b69c2b068fc378daa952ba7f163c4a11628f55a4df523b3ef838383604051808473ffffffffffffffffffffffffffffffffffffffff1673ffffffffffffffffffffffffffffffffffffffff1681526020018373ffffffffffffffffffffffffffffffffffffffff1673ffffffffffffffffffffffffffffffffffffffff168152602001828152602001935050505060405180910390a1505050565b82600e6007016008900481019282156200083f5791602002820160005b838211156200080b57835183826101000a81548163ffffffff021916908363ffffffff1602179055509260200192600401602081600301049283019260010302620007c5565b80156200083d5782816101000a81549063ffffffff02191690556004016020816003010492830192600103026200080b565b505b5090506200084e9190620008fb565b5090565b6101006040519081016040528060008152602001600067ffffffffffffffff168152602001600067ffffffffffffffff168152602001600063ffffffff168152602001600063ffffffff168152602001600063ffffffff168152602001600061ffff168152602001600061ffff1681525090565b815481835581811511620008f657600202816002028360005260206000209182019101620008f5919062000931565b5b505050565b6200092e91905b808211156200092a57600081816101000a81549063ffffffff02191690555060010162000902565b5090565b90565b620009fd91905b80821115620009f9576000808201600090556001820160006101000a81549067ffffffffffffffff02191690556001820160086101000a81549067ffffffffffffffff02191690556001820160106101000a81549063ffffffff02191690556001820160146101000a81549063ffffffff02191690556001820160186101000a81549063ffffffff021916905560018201601c6101000a81549061ffff021916905560018201601e6101000a81549061ffff02191690555060020162000938565b5090565b90565b6152db8062000a106000396000f3006060604052600436106102bf576000357c0100000000000000000000000000000000000000000000000000000000900463ffffffff16806301ffc9a7146103755780630519ce79146103cf5780630560ff441461042457806305e45546146104d457806306fdde03146104fd578063095ea7b31461058b5780630a0f8168146105cd5780630e583df01461062257806314001f4c1461064b57806318160ddd14610684578063183a7947146106ad5780631940a936146106d657806319c2f2011461071157806321717ebf1461073a57806323b872dd1461078f57806324e7a38a146107f057806327d7874c146108295780632ba73c15146108625780633d7d3f5a1461089b5780633f4ba83a146108d957806346116e6f146108ee57806346d22c7014610951578063481af3d3146109955780634ad8c938146109f85780634b85fd5514610a365780634dfff04f14610a595780634e0a337914610a9b5780635612913414610ad45780635663896e14610b165780635c975abb14610b395780635fd8c71014610b665780636352211e14610b7b578063680eba2714610bde5780636af04a5714610c075780636fbde40d14610c5c57806370a0823114610c955780637158798814610ce25780637a7d493714610d1b5780638456cb5914610d445780638462151c14610d5957806388c2a0bf14610de757806391876e5714610e1e57806395d89b4114610e335780639d6fac6f14610ec1578063a45f4bfc14610f04578063a9059cbb14610f67578063b047fb5014610fa9578063b0c35c0514610ffe578063bc4006f514611027578063c3bea9af1461107c578063d3e6f49f1461109f578063defb9584146110da578063e17b25af14611103578063e6cbe3511461113c578063e98b7f4d14611191578063ed60ade61461120f578063f1ca941014611230578063f2b47d5214611259578063f7d8c883146112ae575b600b60009054906101000a900473ffffffffffffffffffffffffffffffffffffffff1673ffffffffffffffffffffffffffffffffffffffff163373ffffffffffffffffffffffffffffffffffffffff1614806103685750600c60009054906101000a900473ffffffffffffffffffffffffffffffffffffffff1673ffffffffffffffffffffffffffffffffffffffff163373ffffffffffffffffffffffffffffffffffffffff16145b151561037357600080fd5b005b341561038057600080fd5b6103b560048080357bffffffffffffffffffffffffffffffffffffffffffffffffffffffff19169060200190919050506112cf565b604051808215151515815260200191505060405180910390f35b34156103da57600080fd5b6103e26115e0565b604051808273ffffffffffffffffffffffffffffffffffffffff1673ffffffffffffffffffffffffffffffffffffffff16815260200191505060405180910390f35b341561042f57600080fd5b61045960048080359060200190919080359060200190820180359060200191909192905050611606565b6040518080602001828103825283818151815260200191508051906020019080838360005b8381101561049957808201518184015260208101905061047e565b50505050905090810190601f1680156104c65780820380516001836020036101000a031916815260200191505b509250505060405180910390f35b34156104df57600080fd5b6104e7611764565b6040518082815260200191505060405180910390f35b341561050857600080fd5b61051061176a565b6040518080602001828103825283818151815260200191508051906020019080838360005b83811015610550578082015181840152602081019050610535565b50505050905090810190601f16801561057d5780820380516001836020036101000a031916815260200191505b509250505060405180910390f35b341561059657600080fd5b6105cb600480803573ffffffffffffffffffffffffffffffffffffffff169060200190919080359060200190919050506117a3565b005b34156105d857600080fd5b6105e0611881565b604051808273ffffffffffffffffffffffffffffffffffffffff1673ffffffffffffffffffffffffffffffffffffffff16815260200191505060405180910390f35b341561062d57600080fd5b6106356118a6565b6040518082815260200191505060405180910390f35b341561065657600080fd5b610682600480803573ffffffffffffffffffffffffffffffffffffffff169060200190919050506118b1565b005b341561068f57600080fd5b6106976119db565b6040518082815260200191505060405180910390f35b34156106b857600080fd5b6106c06119eb565b6040518082815260200191505060405180910390f35b34156106e157600080fd5b6106f760048080359060200190919050506119f1565b604051808215151515815260200191505060405180910390f35b341561071c57600080fd5b610724611a43565b6040518082815260200191505060405180910390f35b341561074557600080fd5b61074d611a4a565b604051808273ffffffffffffffffffffffffffffffffffffffff1673ffffffffffffffffffffffffffffffffffffffff16815260200191505060405180910390f35b341561079a57600080fd5b6107ee600480803573ffffffffffffffffffffffffffffffffffffffff1690602001909190803573ffffffffffffffffffffffffffffffffffffffff16906020019091908035906020019091905050611a70565b005b34156107fb57600080fd5b610827600480803573ffffffffffffffffffffffffffffffffffffffff16906020019091905050611b3d565b005b341561083457600080fd5b610860600480803573ffffffffffffffffffffffffffffffffffffffff16906020019091905050611c67565b005b341561086d57600080fd5b610899600480803573ffffffffffffffffffffffffffffffffffffffff16906020019091905050611d41565b005b34156108a657600080fd5b6108d76004808035906020019091908035906020019091908035906020019091908035906020019091905050611e1c565b005b34156108e457600080fd5b6108ec611f80565b005b34156108f957600080fd5b61090f6004808035906020019091905050612177565b604051808273ffffffffffffffffffffffffffffffffffffffff1673ffffffffffffffffffffffffffffffffffffffff16815260200191505060405180910390f35b341561095c57600080fd5b61097b60048080359060200190919080359060200190919050506121aa565b604051808215151515815260200191505060405180910390f35b34156109a057600080fd5b6109b66004808035906020019091905050612232565b604051808273ffffffffffffffffffffffffffffffffffffffff1673ffffffffffffffffffffffffffffffffffffffff16815260200191505060405180910390f35b3415610a0357600080fd5b610a346004808035906020019091908035906020019091908035906020019091908035906020019091905050612265565b005b3415610a4157600080fd5b610a5760048080359060200190919050506123c8565b005b3415610a6457600080fd5b610a99600480803573ffffffffffffffffffffffffffffffffffffffff1690602001909190803590602001909190505061242e565b005b3415610aa657600080fd5b610ad2600480803573ffffffffffffffffffffffffffffffffffffffff169060200190919050506124b5565b005b3415610adf57600080fd5b610b14600480803590602001909190803573ffffffffffffffffffffffffffffffffffffffff16906020019091905050612590565b005b3415610b2157600080fd5b610b376004808035906020019091905050612685565b005b3415610b4457600080fd5b610b4c6127d9565b604051808215151515815260200191505060405180910390f35b3415610b7157600080fd5b610b796127ec565b005b3415610b8657600080fd5b610b9c60048080359060200190919050506128d8565b604051808273ffffffffffffffffffffffffffffffffffffffff1673ffffffffffffffffffffffffffffffffffffffff16815260200191505060405180910390f35b3415610be957600080fd5b610bf1612951565b6040518082815260200191505060405180910390f35b3415610c1257600080fd5b610c1a612957565b604051808273ffffffffffffffffffffffffffffffffffffffff1673ffffffffffffffffffffffffffffffffffffffff16815260200191505060405180910390f35b3415610c6757600080fd5b610c93600480803573ffffffffffffffffffffffffffffffffffffffff1690602001909190505061297d565b005b3415610ca057600080fd5b610ccc600480803573ffffffffffffffffffffffffffffffffffffffff16906020019091905050612aa7565b6040518082815260200191505060405180910390f35b3415610ced57600080fd5b610d19600480803573ffffffffffffffffffffffffffffffffffffffff16906020019091905050612af0565b005b3415610d2657600080fd5b610d2e612c0d565b6040518082815260200191505060405180910390f35b3415610d4f57600080fd5b610d57612c13565b005b3415610d6457600080fd5b610d90600480803573ffffffffffffffffffffffffffffffffffffffff16906020019091905050612d57565b6040518080602001828103825283818151815260200191508051906020019060200280838360005b83811015610dd3578082015181840152602081019050610db8565b505050509050019250505060405180910390f35b3415610df257600080fd5b610e086004808035906020019091905050612e8e565b6040518082815260200191505060405180910390f35b3415610e2957600080fd5b610e316132a0565b005b3415610e3e57600080fd5b610e466134d7565b6040518080602001828103825283818151815260200191508051906020019080838360005b83811015610e86578082015181840152602081019050610e6b565b50505050905090810190601f168015610eb35780820380516001836020036101000a031916815260200191505b509250505060405180910390f35b3415610ecc57600080fd5b610ee26004808035906020019091905050613510565b604051808263ffffffff1663ffffffff16815260200191505060405180910390f35b3415610f0f57600080fd5b610f25600480803590602001909190505061353f565b604051808273ffffffffffffffffffffffffffffffffffffffff1673ffffffffffffffffffffffffffffffffffffffff16815260200191505060405180910390f35b3415610f7257600080fd5b610fa7600480803573ffffffffffffffffffffffffffffffffffffffff16906020019091908035906020019091905050613572565b005b3415610fb457600080fd5b610fbc6136e3565b604051808273ffffffffffffffffffffffffffffffffffffffff1673ffffffffffffffffffffffffffffffffffffffff16815260200191505060405180910390f35b341561100957600080fd5b611011613709565b6040518082815260200191505060405180910390f35b341561103257600080fd5b61103a61370f565b604051808273ffffffffffffffffffffffffffffffffffffffff1673ffffffffffffffffffffffffffffffffffffffff16815260200191505060405180910390f35b341561108757600080fd5b61109d6004808035906020019091905050613735565b005b34156110aa57600080fd5b6110c060048080359060200190919050506138ef565b604051808215151515815260200191505060405180910390f35b34156110e557600080fd5b6110ed613a5e565b6040518082815260200191505060405180910390f35b341561110e57600080fd5b61113a600480803573ffffffffffffffffffffffffffffffffffffffff16906020019091905050613a64565b005b341561114757600080fd5b61114f613b03565b604051808273ffffffffffffffffffffffffffffffffffffffff1673ffffffffffffffffffffffffffffffffffffffff16815260200191505060405180910390f35b341561119c57600080fd5b6111b26004808035906020019091905050613b29565b604051808b1515151581526020018a1515151581526020018981526020018881526020018781526020018681526020018581526020018481526020018381526020018281526020019a505050505050505050505060405180910390f35b61122e6004808035906020019091908035906020019091905050613c8a565b005b341561123b57600080fd5b611243613e62565b6040518082815260200191505060405180910390f35b341561126457600080fd5b61126c613e68565b604051808273ffffffffffffffffffffffffffffffffffffffff1673ffffffffffffffffffffffffffffffffffffffff16815260200191505060405180910390f35b6112cd6004808035906020019091908035906020019091905050613e8e565b005b600060405180807f737570706f727473496e74657266616365286279746573342900000000000000815250601901905060405180910390207bffffffffffffffffffffffffffffffffffffffffffffffffffffffff1916827bffffffffffffffffffffffffffffffffffffffffffffffffffffffff191614806115d9575060405180807f746f6b656e4d657461646174612875696e743235362c737472696e6729000000815250601d019050604051809103902060405180807f746f6b656e734f664f776e6572286164647265737329000000000000000000008152506016019050604051809103902060405180807f7472616e7366657246726f6d28616464726573732c616464726573732c75696e81526020017f74323536290000000000000000000000000000000000000000000000000000008152506025019050604051809103902060405180807f7472616e7366657228616464726573732c75696e7432353629000000000000008152506019019050604051809103902060405180807f617070726f766528616464726573732c75696e743235362900000000000000008152506018019050604051809103902060405180807f6f776e65724f662875696e7432353629000000000000000000000000000000008152506010019050604051809103902060405180807f62616c616e63654f6628616464726573732900000000000000000000000000008152506012019050604051809103902060405180807f746f74616c537570706c79282900000000000000000000000000000000000000815250600d019050604051809103902060405180807f73796d626f6c28290000000000000000000000000000000000000000000000008152506008019050604051809103902060405180807f6e616d6528290000000000000000000000000000000000000000000000000000815250600601905060405180910390201818181818181818187bffffffffffffffffffffffffffffffffffffffffffffffffffffffff1916827bffffffffffffffffffffffffffffffffffffffffffffffffffffffff1916145b9050919050565b600160009054906101000a900473ffffffffffffffffffffffffffffffffffffffff1681565b61160e6150ea565b6116166150fe565b60008073ffffffffffffffffffffffffffffffffffffffff16600d60009054906101000a900473ffffffffffffffffffffffffffffffffffffffff1673ffffffffffffffffffffffffffffffffffffffff161415151561167557600080fd5b600d60009054906101000a900473ffffffffffffffffffffffffffffffffffffffff1673ffffffffffffffffffffffffffffffffffffffff1663cb4799f28787876040518463ffffffff167c010000000000000000000000000000000000000000000000000000000002815260040180848152602001806020018281038252848482818152602001925080828437820191505094505050505060a060405180830381600087803b151561172757600080fd5b5af1151561173457600080fd5b50505060405180608001805190602001604052809250819350505061175982826141cf565b925050509392505050565b60115481565b6040805190810160405280600d81526020017f43727970746f4b6974746965730000000000000000000000000000000000000081525081565b600260149054906101000a900460ff161515156117bf57600080fd5b6117c93382614227565b15156117d457600080fd5b6117de8183614293565b7f8c5be1e5ebec7d5bd14f71427d1e84f3dd0314c0f7b2291e5b200ac8c7c3b925338383604051808473ffffffffffffffffffffffffffffffffffffffff1673ffffffffffffffffffffffffffffffffffffffff1681526020018373ffffffffffffffffffffffffffffffffffffffff1673ffffffffffffffffffffffffffffffffffffffff168152602001828152602001935050505060405180910390a15050565b6000809054906101000a900473ffffffffffffffffffffffffffffffffffffffff1681565b662386f26fc1000081565b60008060009054906101000a900473ffffffffffffffffffffffffffffffffffffffff1673ffffffffffffffffffffffffffffffffffffffff163373ffffffffffffffffffffffffffffffffffffffff1614151561190e57600080fd5b8190508073ffffffffffffffffffffffffffffffffffffffff166376190f8f6040518163ffffffff167c0100000000000000000000000000000000000000000000000000000000028152600401602060405180830381600087803b151561197457600080fd5b5af1151561198157600080fd5b50505060405180519050151561199657600080fd5b80600c60006101000a81548173ffffffffffffffffffffffffffffffffffffffff021916908373ffffffffffffffffffffffffffffffffffffffff1602179055505050565b6000600160068054905003905090565b600f5481565b60008082111515611a0157600080fd5b6000600683815481101515611a1257fe5b906000526020600020906002020160010160189054906101000a900463ffffffff1663ffffffff1614159050919050565b6201518081565b600c60009054906101000a900473ffffffffffffffffffffffffffffffffffffffff1681565b600260149054906101000a900460ff16151515611a8c57600080fd5b600073ffffffffffffffffffffffffffffffffffffffff168273ffffffffffffffffffffffffffffffffffffffff1614151515611ac857600080fd5b3073ffffffffffffffffffffffffffffffffffffffff168273ffffffffffffffffffffffffffffffffffffffff1614151515611b0357600080fd5b611b0d33826142e9565b1515611b1857600080fd5b611b228382614227565b1515611b2d57600080fd5b611b38838383614355565b505050565b60008060009054906101000a900473ffffffffffffffffffffffffffffffffffffffff1673ffffffffffffffffffffffffffffffffffffffff163373ffffffffffffffffffffffffffffffffffffffff16141515611b9a57600080fd5b8190508073ffffffffffffffffffffffffffffffffffffffff166354c15b826040518163ffffffff167c0100000000000000000000000000000000000000000000000000000000028152600401602060405180830381600087803b1515611c0057600080fd5b5af11515611c0d57600080fd5b505050604051805190501515611c2257600080fd5b80601060006101000a81548173ffffffffffffffffffffffffffffffffffffffff021916908373ffffffffffffffffffffffffffffffffffffffff1602179055505050565b6000809054906101000a900473ffffffffffffffffffffffffffffffffffffffff1673ffffffffffffffffffffffffffffffffffffffff163373ffffffffffffffffffffffffffffffffffffffff16141515611cc257600080fd5b600073ffffffffffffffffffffffffffffffffffffffff168173ffffffffffffffffffffffffffffffffffffffff1614151515611cfe57600080fd5b806000806101000a81548173ffffffffffffffffffffffffffffffffffffffff021916908373ffffffffffffffffffffffffffffffffffffffff16021790555050565b6000809054906101000a900473ffffffffffffffffffffffffffffffffffffffff1673ffffffffffffffffffffffffffffffffffffffff163373ffffffffffffffffffffffffffffffffffffffff16141515611d9c57600080fd5b600073ffffffffffffffffffffffffffffffffffffffff168173ffffffffffffffffffffffffffffffffffffffff1614151515611dd857600080fd5b80600260006101000a81548173ffffffffffffffffffffffffffffffffffffffff021916908373ffffffffffffffffffffffffffffffffffffffff16021790555050565b600260149054906101000a900460ff16151515611e3857600080fd5b611e423385614227565b1515611e4d57600080fd5b611e56846119f1565b151515611e6257600080fd5b611e8e84600b60009054906101000a900473ffffffffffffffffffffffffffffffffffffffff16614293565b600b60009054906101000a900473ffffffffffffffffffffffffffffffffffffffff1673ffffffffffffffffffffffffffffffffffffffff166327ebe40a85858585336040518663ffffffff167c0100000000000000000000000000000000000000000000000000000000028152600401808681526020018581526020018481526020018381526020018273ffffffffffffffffffffffffffffffffffffffff1673ffffffffffffffffffffffffffffffffffffffff16815260200195505050505050600060405180830381600087803b1515611f6a57600080fd5b5af11515611f7757600080fd5b50505050505050565b6000809054906101000a900473ffffffffffffffffffffffffffffffffffffffff1673ffffffffffffffffffffffffffffffffffffffff163373ffffffffffffffffffffffffffffffffffffffff16141515611fdb57600080fd5b600260149054906101000a900460ff161515611ff657600080fd5b600073ffffffffffffffffffffffffffffffffffffffff16600b60009054906101000a900473ffffffffffffffffffffffffffffffffffffffff1673ffffffffffffffffffffffffffffffffffffffff161415151561205457600080fd5b600073ffffffffffffffffffffffffffffffffffffffff16600c60009054906101000a900473ffffffffffffffffffffffffffffffffffffffff1673ffffffffffffffffffffffffffffffffffffffff16141515156120b257600080fd5b600073ffffffffffffffffffffffffffffffffffffffff16601060009054906101000a900473ffffffffffffffffffffffffffffffffffffffff1673ffffffffffffffffffffffffffffffffffffffff161415151561211057600080fd5b600073ffffffffffffffffffffffffffffffffffffffff16601360009054906101000a900473ffffffffffffffffffffffffffffffffffffffff1673ffffffffffffffffffffffffffffffffffffffff1614151561216d57600080fd5b61217561458d565b565b600a6020528060005260406000206000915054906101000a900473ffffffffffffffffffffffffffffffffffffffff1681565b600080600080851115156121bd57600080fd5b6000841115156121cc57600080fd5b6006858154811015156121db57fe5b906000526020600020906002020191506006848154811015156121fa57fe5b9060005260206000209060020201905061221682868387614620565b801561222857506122278486614835565b5b9250505092915050565b60096020528060005260406000206000915054906101000a900473ffffffffffffffffffffffffffffffffffffffff1681565b600260149054906101000a900460ff1615151561228157600080fd5b61228b3385614227565b151561229657600080fd5b61229f846138ef565b15156122aa57600080fd5b6122d684600c60009054906101000a900473ffffffffffffffffffffffffffffffffffffffff16614293565b600c60009054906101000a900473ffffffffffffffffffffffffffffffffffffffff1673ffffffffffffffffffffffffffffffffffffffff166327ebe40a85858585336040518663ffffffff167c0100000000000000000000000000000000000000000000000000000000028152600401808681526020018581526020018481526020018381526020018273ffffffffffffffffffffffffffffffffffffffff1673ffffffffffffffffffffffffffffffffffffffff16815260200195505050505050600060405180830381600087803b15156123b257600080fd5b5af115156123bf57600080fd5b50505050505050565b600260009054906101000a900473ffffffffffffffffffffffffffffffffffffffff1673ffffffffffffffffffffffffffffffffffffffff163373ffffffffffffffffffffffffffffffffffffffff1614151561242457600080fd5b80600e8190555050565b600260149054906101000a900460ff1615151561244a57600080fd5b6124543382614227565b151561245f57600080fd5b81600a600083815260200190815260200160002060006101000a81548173ffffffffffffffffffffffffffffffffffffffff021916908373ffffffffffffffffffffffffffffffffffffffff1602179055505050565b6000809054906101000a900473ffffffffffffffffffffffffffffffffffffffff1673ffffffffffffffffffffffffffffffffffffffff163373ffffffffffffffffffffffffffffffffffffffff1614151561251057600080fd5b600073ffffffffffffffffffffffffffffffffffffffff168173ffffffffffffffffffffffffffffffffffffffff161415151561254c57600080fd5b80600160006101000a81548173ffffffffffffffffffffffffffffffffffffffff021916908373ffffffffffffffffffffffffffffffffffffffff16021790555050565b6000600260009054906101000a900473ffffffffffffffffffffffffffffffffffffffff1673ffffffffffffffffffffffffffffffffffffffff163373ffffffffffffffffffffffffffffffffffffffff161415156125ee57600080fd5b819050600073ffffffffffffffffffffffffffffffffffffffff168173ffffffffffffffffffffffffffffffffffffffff16141561264c57600260009054906101000a900473ffffffffffffffffffffffffffffffffffffffff1690505b61138860115410151561265e57600080fd5b60116000815480929190600101919050555061267f60008060008685614948565b50505050565b600260009054906101000a900473ffffffffffffffffffffffffffffffffffffffff1673ffffffffffffffffffffffffffffffffffffffff163373ffffffffffffffffffffffffffffffffffffffff16148061272d57506000809054906101000a900473ffffffffffffffffffffffffffffffffffffffff1673ffffffffffffffffffffffffffffffffffffffff163373ffffffffffffffffffffffffffffffffffffffff16145b806127855750600160009054906101000a900473ffffffffffffffffffffffffffffffffffffffff1673ffffffffffffffffffffffffffffffffffffffff163373ffffffffffffffffffffffffffffffffffffffff16145b151561279057600080fd5b60036000600e811015156127a057fe5b600891828204019190066004029054906101000a900463ffffffff1663ffffffff16811015156127cf57600080fd5b8060058190555050565b600260149054906101000a900460ff1681565b600080600160009054906101000a900473ffffffffffffffffffffffffffffffffffffffff1673ffffffffffffffffffffffffffffffffffffffff163373ffffffffffffffffffffffffffffffffffffffff1614151561284b57600080fd5b3073ffffffffffffffffffffffffffffffffffffffff16319150600e546001600f5401029050808211156128d457600160009054906101000a900473ffffffffffffffffffffffffffffffffffffffff1673ffffffffffffffffffffffffffffffffffffffff166108fc8284039081150290604051600060405180830381858888f19350505050505b5050565b60006007600083815260200190815260200160002060009054906101000a900473ffffffffffffffffffffffffffffffffffffffff169050600073ffffffffffffffffffffffffffffffffffffffff168173ffffffffffffffffffffffffffffffffffffffff161415151561294c57600080fd5b919050565b61afc881565b601360009054906101000a900473ffffffffffffffffffffffffffffffffffffffff1681565b60008060009054906101000a900473ffffffffffffffffffffffffffffffffffffffff1673ffffffffffffffffffffffffffffffffffffffff163373ffffffffffffffffffffffffffffffffffffffff161415156129da57600080fd5b8190508073ffffffffffffffffffffffffffffffffffffffff166385b861886040518163ffffffff167c0100000000000000000000000000000000000000000000000000000000028152600401602060405180830381600087803b1515612a4057600080fd5b5af11515612a4d57600080fd5b505050604051805190501515612a6257600080fd5b80600b60006101000a81548173ffffffffffffffffffffffffffffffffffffffff021916908373ffffffffffffffffffffffffffffffffffffffff1602179055505050565b6000600860008373ffffffffffffffffffffffffffffffffffffffff1673ffffffffffffffffffffffffffffffffffffffff168152602001908152602001600020549050919050565b6000809054906101000a900473ffffffffffffffffffffffffffffffffffffffff1673ffffffffffffffffffffffffffffffffffffffff163373ffffffffffffffffffffffffffffffffffffffff16141515612b4b57600080fd5b600260149054906101000a900460ff161515612b6657600080fd5b80601360006101000a81548173ffffffffffffffffffffffffffffffffffffffff021916908373ffffffffffffffffffffffffffffffffffffffff1602179055507f450db8da6efbe9c22f2347f7c2021231df1fc58d3ae9a2fa75d39fa44619930581604051808273ffffffffffffffffffffffffffffffffffffffff1673ffffffffffffffffffffffffffffffffffffffff16815260200191505060405180910390a150565b60055481565b600260009054906101000a900473ffffffffffffffffffffffffffffffffffffffff1673ffffffffffffffffffffffffffffffffffffffff163373ffffffffffffffffffffffffffffffffffffffff161480612cbb57506000809054906101000a900473ffffffffffffffffffffffffffffffffffffffff1673ffffffffffffffffffffffffffffffffffffffff163373ffffffffffffffffffffffffffffffffffffffff16145b80612d135750600160009054906101000a900473ffffffffffffffffffffffffffffffffffffffff1673ffffffffffffffffffffffffffffffffffffffff163373ffffffffffffffffffffffffffffffffffffffff16145b1515612d1e57600080fd5b600260149054906101000a900460ff16151515612d3a57600080fd5b6001600260146101000a81548160ff021916908315150217905550565b612d5f615129565b6000612d69615129565b6000806000612d7787612aa7565b94506000851415612da9576000604051805910612d915750595b90808252806020026020018201604052509550612e84565b84604051805910612db75750595b90808252806020026020018201604052509350612dd26119db565b925060009150600190505b8281111515612e80578673ffffffffffffffffffffffffffffffffffffffff166007600083815260200190815260200160002060009054906101000a900473ffffffffffffffffffffffffffffffffffffffff1673ffffffffffffffffffffffffffffffffffffffff161415612e7357808483815181101515612e5c57fe5b906020019060200201818152505081806001019250505b8080600101915050612ddd565b8395505b5050505050919050565b600080600080600080600080600260149054906101000a900460ff16151515612eb657600080fd5b600689815481101515612ec557fe5b9060005260206000209060020201965060008760010160009054906101000a900467ffffffffffffffff1667ffffffffffffffff1614151515612f0757600080fd5b61303d876101006040519081016040529081600082015481526020016001820160009054906101000a900467ffffffffffffffff1667ffffffffffffffff1667ffffffffffffffff1681526020016001820160089054906101000a900467ffffffffffffffff1667ffffffffffffffff1667ffffffffffffffff1681526020016001820160109054906101000a900463ffffffff1663ffffffff1663ffffffff1681526020016001820160149054906101000a900463ffffffff1663ffffffff1663ffffffff1681526020016001820160189054906101000a900463ffffffff1663ffffffff1663ffffffff16815260200160018201601c9054906101000a900461ffff1661ffff1661ffff16815260200160018201601e9054906101000a900461ffff1661ffff1661ffff1681525050614c3b565b151561304857600080fd5b8660010160189054906101000a900463ffffffff1663ffffffff16955060068681548110151561307457fe5b9060005260206000209060020201945086600101601e9054906101000a900461ffff16935086600101601e9054906101000a900461ffff1661ffff1685600101601e9054906101000a900461ffff1661ffff1611156130e35784600101601e9054906101000a900461ffff1693505b601060009054906101000a900473ffffffffffffffffffffffffffffffffffffffff1673ffffffffffffffffffffffffffffffffffffffff16630d9f5aed8860000154876000015460018b60010160089054906101000a900467ffffffffffffffff16036040518463ffffffff167c0100000000000000000000000000000000000000000000000000000000028152600401808481526020018381526020018267ffffffffffffffff1681526020019350505050602060405180830381600087803b15156131b057600080fd5b5af115156131bd57600080fd5b505050604051805190509250600760008a815260200190815260200160002060009054906101000a900473ffffffffffffffffffffffffffffffffffffffff16915061322d898860010160189054906101000a900463ffffffff1663ffffffff166001870161ffff168686614948565b90508660010160186101000a81549063ffffffff0219169055600f60008154809291906001900391905055503373ffffffffffffffffffffffffffffffffffffffff166108fc600e549081150290604051600060405180830381858888f193505050505080975050505050505050919050565b600260009054906101000a900473ffffffffffffffffffffffffffffffffffffffff1673ffffffffffffffffffffffffffffffffffffffff163373ffffffffffffffffffffffffffffffffffffffff16148061334857506000809054906101000a900473ffffffffffffffffffffffffffffffffffffffff1673ffffffffffffffffffffffffffffffffffffffff163373ffffffffffffffffffffffffffffffffffffffff16145b806133a05750600160009054906101000a900473ffffffffffffffffffffffffffffffffffffffff1673ffffffffffffffffffffffffffffffffffffffff163373ffffffffffffffffffffffffffffffffffffffff16145b15156133ab57600080fd5b600b60009054906101000a900473ffffffffffffffffffffffffffffffffffffffff1673ffffffffffffffffffffffffffffffffffffffff16635fd8c7106040518163ffffffff167c0100000000000000000000000000000000000000000000000000000000028152600401600060405180830381600087803b151561343057600080fd5b5af1151561343d57600080fd5b505050600c60009054906101000a900473ffffffffffffffffffffffffffffffffffffffff1673ffffffffffffffffffffffffffffffffffffffff16635fd8c7106040518163ffffffff167c0100000000000000000000000000000000000000000000000000000000028152600401600060405180830381600087803b15156134c557600080fd5b5af115156134d257600080fd5b505050565b6040805190810160405280600281526020017f434b00000000000000000000000000000000000000000000000000000000000081525081565b600381600e8110151561351f57fe5b60089182820401919006600402915054906101000a900463ffffffff1681565b60076020528060005260406000206000915054906101000a900473ffffffffffffffffffffffffffffffffffffffff1681565b600260149054906101000a900460ff1615151561358e57600080fd5b600073ffffffffffffffffffffffffffffffffffffffff168273ffffffffffffffffffffffffffffffffffffffff16141515156135ca57600080fd5b3073ffffffffffffffffffffffffffffffffffffffff168273ffffffffffffffffffffffffffffffffffffffff161415151561360557600080fd5b600b60009054906101000a900473ffffffffffffffffffffffffffffffffffffffff1673ffffffffffffffffffffffffffffffffffffffff168273ffffffffffffffffffffffffffffffffffffffff161415151561366257600080fd5b600c60009054906101000a900473ffffffffffffffffffffffffffffffffffffffff1673ffffffffffffffffffffffffffffffffffffffff168273ffffffffffffffffffffffffffffffffffffffff16141515156136bf57600080fd5b6136c93382614227565b15156136d457600080fd5b6136df338383614355565b5050565b600260009054906101000a900473ffffffffffffffffffffffffffffffffffffffff1681565b600e5481565b600d60009054906101000a900473ffffffffffffffffffffffffffffffffffffffff1681565b6000600260009054906101000a900473ffffffffffffffffffffffffffffffffffffffff1673ffffffffffffffffffffffffffffffffffffffff163373ffffffffffffffffffffffffffffffffffffffff1614151561379357600080fd5b61afc86012541015156137a557600080fd5b6137b460008060008530614948565b90506137e281600b60009054906101000a900473ffffffffffffffffffffffffffffffffffffffff16614293565b600b60009054906101000a900473ffffffffffffffffffffffffffffffffffffffff1673ffffffffffffffffffffffffffffffffffffffff166327ebe40a82613829614c76565b600062015180306040518663ffffffff167c0100000000000000000000000000000000000000000000000000000000028152600401808681526020018581526020018481526020018381526020018273ffffffffffffffffffffffffffffffffffffffff1673ffffffffffffffffffffffffffffffffffffffff16815260200195505050505050600060405180830381600087803b15156138c957600080fd5b5af115156138d657600080fd5b5050506012600081548092919060010191905055505050565b60008060008311151561390157600080fd5b60068381548110151561391057fe5b90600052602060002090600202019050613a56816101006040519081016040529081600082015481526020016001820160009054906101000a900467ffffffffffffffff1667ffffffffffffffff1667ffffffffffffffff1681526020016001820160089054906101000a900467ffffffffffffffff1667ffffffffffffffff1667ffffffffffffffff1681526020016001820160109054906101000a900463ffffffff1663ffffffff1663ffffffff1681526020016001820160149054906101000a900463ffffffff1663ffffffff1663ffffffff1681526020016001820160189054906101000a900463ffffffff1663ffffffff1663ffffffff16815260200160018201601c9054906101000a900461ffff1661ffff1661ffff16815260200160018201601e9054906101000a900461ffff1661ffff1661ffff1681525050614d6c565b915050919050565b61138881565b6000809054906101000a900473ffffffffffffffffffffffffffffffffffffffff1673ffffffffffffffffffffffffffffffffffffffff163373ffffffffffffffffffffffffffffffffffffffff16141515613abf57600080fd5b80600d60006101000a81548173ffffffffffffffffffffffffffffffffffffffff021916908373ffffffffffffffffffffffffffffffffffffffff16021790555050565b600b60009054906101000a900473ffffffffffffffffffffffffffffffffffffffff1681565b600080600080600080600080600080600060068c815481101515613b4957fe5b9060005260206000209060020201905060008160010160189054906101000a900463ffffffff1663ffffffff1614159a50438160010160089054906101000a900467ffffffffffffffff1667ffffffffffffffff161115995080600101601c9054906101000a900461ffff1661ffff1698508060010160089054906101000a900467ffffffffffffffff1667ffffffffffffffff1697508060010160189054906101000a900463ffffffff1663ffffffff1696508060010160009054906101000a900467ffffffffffffffff1667ffffffffffffffff1695508060010160109054906101000a900463ffffffff1663ffffffff1694508060010160149054906101000a900463ffffffff1663ffffffff16935080600101601e9054906101000a900461ffff1661ffff16925080600001549150509193959799509193959799565b6000600260149054906101000a900460ff16151515613ca857600080fd5b613cb23383614227565b1515613cbd57600080fd5b613cc6826138ef565b1515613cd157600080fd5b613cdb8284614da6565b1515613ce657600080fd5b600c60009054906101000a900473ffffffffffffffffffffffffffffffffffffffff1673ffffffffffffffffffffffffffffffffffffffff1663c55d0f56846040518263ffffffff167c010000000000000000000000000000000000000000000000000000000002815260040180828152602001915050602060405180830381600087803b1515613d7657600080fd5b5af11515613d8357600080fd5b505050604051805190509050600e5481013410151515613da257600080fd5b600c60009054906101000a900473ffffffffffffffffffffffffffffffffffffffff1673ffffffffffffffffffffffffffffffffffffffff1663454a2ab3600e543403856040518363ffffffff167c0100000000000000000000000000000000000000000000000000000000028152600401808281526020019150506000604051808303818588803b1515613e3657600080fd5b5af11515613e4357600080fd5b50505050613e5d8263ffffffff168463ffffffff16614dff565b505050565b60125481565b601060009054906101000a900473ffffffffffffffffffffffffffffffffffffffff1681565b600080600260149054906101000a900460ff16151515613ead57600080fd5b600e543410151515613ebe57600080fd5b613ec83385614227565b1515613ed357600080fd5b613edd8385614835565b1515613ee857600080fd5b600684815481101515613ef757fe5b9060005260206000209060020201915061403d826101006040519081016040529081600082015481526020016001820160009054906101000a900467ffffffffffffffff1667ffffffffffffffff1667ffffffffffffffff1681526020016001820160089054906101000a900467ffffffffffffffff1667ffffffffffffffff1667ffffffffffffffff1681526020016001820160109054906101000a900463ffffffff1663ffffffff1663ffffffff1681526020016001820160149054906101000a900463ffffffff1663ffffffff1663ffffffff1681526020016001820160189054906101000a900463ffffffff1663ffffffff1663ffffffff16815260200160018201601c9054906101000a900461ffff1661ffff1661ffff16815260200160018201601e9054906101000a900461ffff1661ffff1661ffff1681525050614d6c565b151561404857600080fd5b60068381548110151561405757fe5b9060005260206000209060020201905061419d816101006040519081016040529081600082015481526020016001820160009054906101000a900467ffffffffffffffff1667ffffffffffffffff1667ffffffffffffffff1681526020016001820160089054906101000a900467ffffffffffffffff1667ffffffffffffffff1667ffffffffffffffff1681526020016001820160109054906101000a900463ffffffff1663ffffffff1663ffffffff1681526020016001820160149054906101000a900463ffffffff1663ffffffff1663ffffffff1681526020016001820160189054906101000a900463ffffffff1663ffffffff1663ffffffff16815260200160018201601c9054906101000a900461ffff1661ffff1661ffff16815260200160018201601e9054906101000a900461ffff1661ffff1661ffff1681525050614d6c565b15156141a857600080fd5b6141b482858386614620565b15156141bf57600080fd5b6141c98484614dff565b50505050565b6141d76150ea565b6141df6150ea565b600080846040518059106141f05750595b9080825280601f01601f1916602001820160405250925060208301915085905061421b828287614fc9565b82935050505092915050565b60008273ffffffffffffffffffffffffffffffffffffffff166007600084815260200190815260200160002060009054906101000a900473ffffffffffffffffffffffffffffffffffffffff1673ffffffffffffffffffffffffffffffffffffffff1614905092915050565b806009600084815260200190815260200160002060006101000a81548173ffffffffffffffffffffffffffffffffffffffff021916908373ffffffffffffffffffffffffffffffffffffffff1602179055505050565b60008273ffffffffffffffffffffffffffffffffffffffff166009600084815260200190815260200160002060009054906101000a900473ffffffffffffffffffffffffffffffffffffffff1673ffffffffffffffffffffffffffffffffffffffff1614905092915050565b600860008373ffffffffffffffffffffffffffffffffffffffff1673ffffffffffffffffffffffffffffffffffffffff16815260200190815260200160002060008154809291906001019190505550816007600083815260200190815260200160002060006101000a81548173ffffffffffffffffffffffffffffffffffffffff021916908373ffffffffffffffffffffffffffffffffffffffff160217905550600073ffffffffffffffffffffffffffffffffffffffff168373ffffffffffffffffffffffffffffffffffffffff161415156144e957600860008473ffffffffffffffffffffffffffffffffffffffff1673ffffffffffffffffffffffffffffffffffffffff1681526020019081526020016000206000815480929190600190039190505550600a600082815260200190815260200160002060006101000a81549073ffffffffffffffffffffffffffffffffffffffff02191690556009600082815260200190815260200160002060006101000a81549073ffffffffffffffffffffffffffffffffffffffff02191690555b7fddf252ad1be2c89b69c2b068fc378daa952ba7f163c4a11628f55a4df523b3ef838383604051808473ffffffffffffffffffffffffffffffffffffffff1673ffffffffffffffffffffffffffffffffffffffff1681526020018373ffffffffffffffffffffffffffffffffffffffff1673ffffffffffffffffffffffffffffffffffffffff168152602001828152602001935050505060405180910390a1505050565b6000809054906101000a900473ffffffffffffffffffffffffffffffffffffffff1673ffffffffffffffffffffffffffffffffffffffff163373ffffffffffffffffffffffffffffffffffffffff161415156145e857600080fd5b600260149054906101000a900460ff16151561460357600080fd5b6000600260146101000a81548160ff021916908315150217905550565b600081841415614633576000905061482d565b818560010160109054906101000a900463ffffffff1663ffffffff1614806146745750818560010160149054906101000a900463ffffffff1663ffffffff16145b15614682576000905061482d565b838360010160109054906101000a900463ffffffff1663ffffffff1614806146c35750838360010160149054906101000a900463ffffffff1663ffffffff16145b156146d1576000905061482d565b60008360010160109054906101000a900463ffffffff1663ffffffff161480614714575060008560010160109054906101000a900463ffffffff1663ffffffff16145b15614722576001905061482d565b8460010160109054906101000a900463ffffffff1663ffffffff168360010160109054906101000a900463ffffffff1663ffffffff16148061479757508460010160149054906101000a900463ffffffff1663ffffffff168360010160109054906101000a900463ffffffff1663ffffffff16145b156147a5576000905061482d565b8460010160109054906101000a900463ffffffff1663ffffffff168360010160149054906101000a900463ffffffff1663ffffffff16148061481a57508460010160149054906101000a900463ffffffff1663ffffffff168360010160149054906101000a900463ffffffff1663ffffffff16145b15614828576000905061482d565b600190505b949350505050565b60008060006007600085815260200190815260200160002060009054906101000a900473ffffffffffffffffffffffffffffffffffffffff1691506007600086815260200190815260200160002060009054906101000a900473ffffffffffffffffffffffffffffffffffffffff1690508073ffffffffffffffffffffffffffffffffffffffff168273ffffffffffffffffffffffffffffffffffffffff16148061493e57508173ffffffffffffffffffffffffffffffffffffffff16600a600087815260200190815260200160002060009054906101000a900473ffffffffffffffffffffffffffffffffffffffff1673ffffffffffffffffffffffffffffffffffffffff16145b9250505092915050565b60008061495361513d565b60008863ffffffff168914151561496957600080fd5b8763ffffffff168814151561497d57600080fd5b8661ffff168714151561498f57600080fd5b60028781151561499b57fe5b049250600d8361ffff1611156149b057600d92505b610100604051908101604052808781526020014267ffffffffffffffff168152602001600067ffffffffffffffff1681526020018a63ffffffff1681526020018963ffffffff168152602001600063ffffffff1681526020018461ffff1681526020018861ffff168152509150600160068054806001018281614a3391906151b1565b916000526020600020906002020160008590919091506000820151816000015560208201518160010160006101000a81548167ffffffffffffffff021916908367ffffffffffffffff16021790555060408201518160010160086101000a81548167ffffffffffffffff021916908367ffffffffffffffff16021790555060608201518160010160106101000a81548163ffffffff021916908363ffffffff16021790555060808201518160010160146101000a81548163ffffffff021916908363ffffffff16021790555060a08201518160010160186101000a81548163ffffffff021916908363ffffffff16021790555060c082015181600101601c6101000a81548161ffff021916908361ffff16021790555060e082015181600101601e6101000a81548161ffff021916908361ffff16021790555050500390508063ffffffff1681141515614b8557600080fd5b7f0a5311bd2a6608f08a180df2ee7c5946819a649b204b554bb8e39825b2c50ad58582846060015163ffffffff16856080015163ffffffff168660000151604051808673ffffffffffffffffffffffffffffffffffffffff1673ffffffffffffffffffffffffffffffffffffffff1681526020018581526020018481526020018381526020018281526020019550505050505060405180910390a1614c2c60008683614355565b80935050505095945050505050565b6000808260a0015163ffffffff1614158015614c6f57504367ffffffffffffffff16826040015167ffffffffffffffff1611155b9050919050565b6000806000600b60009054906101000a900473ffffffffffffffffffffffffffffffffffffffff1673ffffffffffffffffffffffffffffffffffffffff1663eac9d94c6040518163ffffffff167c0100000000000000000000000000000000000000000000000000000000028152600401602060405180830381600087803b1515614d0057600080fd5b5af11515614d0d57600080fd5b505050604051805190509150816fffffffffffffffffffffffffffffffff1682141515614d3957600080fd5b600282811515614d4557fe5b0482019050662386f26fc10000811015614d6457662386f26fc1000090505b809250505090565b6000808260a0015163ffffffff16148015614d9f57504367ffffffffffffffff16826040015167ffffffffffffffff1611155b9050919050565b6000806000600685815481101515614dba57fe5b90600052602060002090600202019150600684815481101515614dd957fe5b90600052602060002090600202019050614df582868387614620565b9250505092915050565b600080600683815481101515614e1157fe5b90600052602060002090600202019150600684815481101515614e3057fe5b90600052602060002090600202019050828160010160186101000a81548163ffffffff021916908363ffffffff160217905550614e6c82615014565b614e7581615014565b600a600085815260200190815260200160002060006101000a81549073ffffffffffffffffffffffffffffffffffffffff0219169055600a600084815260200190815260200160002060006101000a81549073ffffffffffffffffffffffffffffffffffffffff0219169055600f600081548092919060010191905055507f241ea03ca20251805084d27d4440371c34a0b85ff108f6bb5611248f73818b806007600086815260200190815260200160002060009054906101000a900473ffffffffffffffffffffffffffffffffffffffff1685858460010160089054906101000a900467ffffffffffffffff16604051808573ffffffffffffffffffffffffffffffffffffffff1673ffffffffffffffffffffffffffffffffffffffff1681526020018481526020018381526020018267ffffffffffffffff16815260200194505050505060405180910390a150505050565b60005b602082101515614ff15782518452602084019350602083019250602082039150614fcc565b6001826020036101000a0390508019835116818551168181178652505050505050565b43600554600383600101601c9054906101000a900461ffff1661ffff16600e8110151561503d57fe5b600891828204019190066004029054906101000a900463ffffffff1663ffffffff1681151561506857fe5b04018160010160086101000a81548167ffffffffffffffff021916908367ffffffffffffffff160217905550600d81600101601c9054906101000a900461ffff1661ffff1610156150e757600181600101601c8282829054906101000a900461ffff160192506101000a81548161ffff021916908361ffff1602179055505b50565b602060405190810160405280600081525090565b6080604051908101604052806004905b600080191681526020019060019003908161510e5790505090565b602060405190810160405280600081525090565b6101006040519081016040528060008152602001600067ffffffffffffffff168152602001600067ffffffffffffffff168152602001600063ffffffff168152602001600063ffffffff168152602001600063ffffffff168152602001600061ffff168152602001600061ffff1681525090565b8154818355818115116151de576002028160020283600052602060002091820191016151dd91906151e3565b5b505050565b6152ac91905b808211156152a8576000808201600090556001820160006101000a81549067ffffffffffffffff02191690556001820160086101000a81549067ffffffffffffffff02191690556001820160106101000a81549063ffffffff02191690556001820160146101000a81549063ffffffff02191690556001820160186101000a81549063ffffffff021916905560018201601c6101000a81549061ffff021916905560018201601e6101000a81549061ffff0219169055506002016151e9565b5090565b905600a165627a7a723058208925a8da7cdfc579206e5793d2260ac2651c98c1651efa409cfe488f22c1a1bc0029",
  "source": "/// @title CryptoKitties: Collectible, breedable, and oh-so-adorable cats on the Ethereum blockchain.\n/// @author Axiom Zen (https://www.axiomzen.co)\n/// @dev The main CryptoKitties contract, keeps track of kittens so they don't wander around and get lost.\nimport \"./KittyMinting.sol\";\ncontract KittyCore is KittyMinting {\n\n    // This is the main CryptoKitties contract. In order to keep our code seperated into logical sections,\n    // we've broken it up in two ways. First, we have several seperately-instantiated sibling contracts\n    // that handle auctions and our super-top-secret genetic combination algorithm. The auctions are\n    // seperate since their logic is somewhat complex and there's always a risk of subtle bugs. By keeping\n    // them in their own contracts, we can upgrade them without disrupting the main contract that tracks\n    // kitty ownership. The genetic combination algorithm is kept seperate so we can open-source all of\n    // the rest of our code without making it _too_ easy for folks to figure out how the genetics work.\n    // Don't worry, I'm sure someone will reverse engineer it soon enough!\n    //\n    // Secondly, we break the core contract into multiple files using inheritence, one for each major\n    // facet of functionality of CK. This allows us to keep related code bundled together while still\n    // avoiding a single giant file with everything in it. The breakdown is as follows:\n    //\n    //      - KittyBase: This is where we define the most fundamental code shared throughout the core\n    //             functionality. This includes our main data storage, constants and data types, plus\n    //             internal functions for managing these items.\n    //\n    //      - KittyAccessControl: This contract manages the various addresses and constraints for operations\n    //             that can be executed only by specific roles. Namely CEO, CFO and COO.\n    //\n    //      - KittyOwnership: This provides the methods required for basic non-fungible token\n    //             transactions, following the draft ERC-721 spec (https://github.com/ethereum/EIPs/issues/721).\n    //\n    //      - KittyBreeding: This file contains the methods necessary to breed cats together, including\n    //             keeping track of siring offers, and relies on an external genetic combination contract.\n    //\n    //      - KittyAuctions: Here we have the public methods for auctioning or bidding on cats or siring\n    //             services. The actual auction functionality is handled in two sibling contracts (one\n    //             for sales and one for siring), while auction creation and bidding is mostly mediated\n    //             through this facet of the core contract.\n    //\n    //      - KittyMinting: This final facet contains the functionality we use for creating new gen0 cats.\n    //             We can make up to 5000 \"promo\" cats that can be given away (especially important when\n    //             the community is new), and all others can only be created and then immediately put up\n    //             for auction via an algorithmically determined starting price. Regardless of how they\n    //             are created, there is a hard limit of 50k gen0 cats. After that, it's all up to the\n    //             community to breed, breed, breed!\n\n    // Set in case the core contract is broken and an upgrade is required\n    address public newContractAddress;\n\n    /// @notice Creates the main CryptoKitties smart contract instance.\n    function KittyCore() public {\n        // Starts paused.\n        paused = true;\n\n        // the creator of the contract is the initial CEO\n        ceoAddress = msg.sender;\n\n        // the creator of the contract is also the initial COO\n        cooAddress = msg.sender;\n\n        // start with the mythical kitten 0 - so we don't have generation-0 parent issues\n        _createKitty(0, 0, 0, uint256(-1), address(0));\n    }\n\n    /// @dev Used to mark the smart contract as upgraded, in case there is a serious\n    ///  breaking bug. This method does nothing but keep track of the new contract and\n    ///  emit a message indicating that the new address is set. It's up to clients of this\n    ///  contract to update to the new contract address in that case. (This contract will\n    ///  be paused indefinitely if such an upgrade takes place.)\n    /// @param _v2Address new address\n    function setNewAddress(address _v2Address) external onlyCEO whenPaused {\n        // See README.md for updgrade plan\n        newContractAddress = _v2Address;\n        ContractUpgrade(_v2Address);\n    }\n\n    /// @notice No tipping!\n    /// @dev Reject all Ether from being sent here, unless it's from one of the\n    ///  two auction contracts. (Hopefully, we can prevent user accidents.)\n    function() external payable {\n        require(\n            msg.sender == address(saleAuction) ||\n            msg.sender == address(siringAuction)\n        );\n    }\n\n    /// @notice Returns all the relevant information about a specific kitty.\n    /// @param _id The ID of the kitty of interest.\n    function getKitty(uint256 _id)\n        external\n        view\n        returns (\n        bool isGestating,\n        bool isReady,\n        uint256 cooldownIndex,\n        uint256 nextActionAt,\n        uint256 siringWithId,\n        uint256 birthTime,\n        uint256 matronId,\n        uint256 sireId,\n        uint256 generation,\n        uint256 genes\n    ) {\n        Kitty storage kit = kitties[_id];\n\n        // if this variable is 0 then it's not gestating\n        isGestating = (kit.siringWithId != 0);\n        isReady = (kit.cooldownEndBlock <= block.number);\n        cooldownIndex = uint256(kit.cooldownIndex);\n        nextActionAt = uint256(kit.cooldownEndBlock);\n        siringWithId = uint256(kit.siringWithId);\n        birthTime = uint256(kit.birthTime);\n        matronId = uint256(kit.matronId);\n        sireId = uint256(kit.sireId);\n        generation = uint256(kit.generation);\n        genes = kit.genes;\n    }\n\n    /// @dev Override unpause so it requires all external contract addresses\n    ///  to be set before contract can be unpaused. Also, we can't have\n    ///  newContractAddress set either, because then the contract was upgraded.\n    /// @notice This is public rather than external so we can call super.unpause\n    ///  without using an expensive CALL.\n    function unpause() public onlyCEO whenPaused {\n        require(saleAuction != address(0));\n        require(siringAuction != address(0));\n        require(geneScience != address(0));\n        require(newContractAddress == address(0));\n\n        // Actually unpause the contract.\n        super.unpause();\n    }\n\n    // @dev Allows the CFO to capture the balance available to the contract.\n    function withdrawBalance() external onlyCFO {\n        uint256 balance = this.balance;\n        // Subtract all the currently pregnant kittens we have, plus 1 of margin.\n        uint256 subtractFees = (pregnantKitties + 1) * autoBirthFee;\n\n        if (balance > subtractFees) {\n            cfoAddress.send(balance - subtractFees);\n        }\n    }\n}\n",
  "sourcePath": "/Users/blake/Documents/Development/ethereum/kittiesClone/contracts/KittyCore.sol",
  "compiler": {
    "name": "solc",
    "version": "0.4.21+commit.dfe3193c.Emscripten.clang"
  },
  "schemaVersion": "2.0.0",
  "updatedAt": "2018-04-07T16:34:57.218Z"
}