{
  "contractName": "KittyBreeding",
  "abi": [
    {
      "constant": true,
      "inputs": [
        {
          "name": "_interfaceID",
          "type": "bytes4"
        }
      ],
      "name": "supportsInterface",
      "outputs": [
        {
          "name": "",
          "type": "bool"
        }
      ],
      "payable": false,
      "stateMutability": "view",
      "type": "function"
    },
    {
      "constant": true,
      "inputs": [],
      "name": "cfoAddress",
      "outputs": [
        {
          "name": "",
          "type": "address"
        }
      ],
      "payable": false,
      "stateMutability": "view",
      "type": "function"
    },
    {
      "constant": true,
      "inputs": [
        {
          "name": "_tokenId",
          "type": "uint256"
        },
        {
          "name": "_preferredTransport",
          "type": "string"
        }
      ],
      "name": "tokenMetadata",
      "outputs": [
        {
          "name": "infoUrl",
          "type": "string"
        }
      ],
      "payable": false,
      "stateMutability": "view",
      "type": "function"
    },
    {
      "constant": true,
      "inputs": [],
      "name": "name",
      "outputs": [
        {
          "name": "",
          "type": "string"
        }
      ],
      "payable": false,
      "stateMutability": "view",
      "type": "function"
    },
    {
      "constant": false,
      "inputs": [
        {
          "name": "_to",
          "type": "address"
        },
        {
          "name": "_tokenId",
          "type": "uint256"
        }
      ],
      "name": "approve",
      "outputs": [],
      "payable": false,
      "stateMutability": "nonpayable",
      "type": "function"
    },
    {
      "constant": true,
      "inputs": [],
      "name": "ceoAddress",
      "outputs": [
        {
          "name": "",
          "type": "address"
        }
      ],
      "payable": false,
      "stateMutability": "view",
      "type": "function"
    },
    {
      "constant": true,
      "inputs": [],
      "name": "totalSupply",
      "outputs": [
        {
          "name": "",
          "type": "uint256"
        }
      ],
      "payable": false,
      "stateMutability": "view",
      "type": "function"
    },
    {
      "constant": true,
      "inputs": [],
      "name": "pregnantKitties",
      "outputs": [
        {
          "name": "",
          "type": "uint256"
        }
      ],
      "payable": false,
      "stateMutability": "view",
      "type": "function"
    },
    {
      "constant": true,
      "inputs": [],
      "name": "siringAuction",
      "outputs": [
        {
          "name": "",
          "type": "address"
        }
      ],
      "payable": false,
      "stateMutability": "view",
      "type": "function"
    },
    {
      "constant": false,
      "inputs": [
        {
          "name": "_from",
          "type": "address"
        },
        {
          "name": "_to",
          "type": "address"
        },
        {
          "name": "_tokenId",
          "type": "uint256"
        }
      ],
      "name": "transferFrom",
      "outputs": [],
      "payable": false,
      "stateMutability": "nonpayable",
      "type": "function"
    },
    {
      "constant": false,
      "inputs": [
        {
          "name": "_newCEO",
          "type": "address"
        }
      ],
      "name": "setCEO",
      "outputs": [],
      "payable": false,
      "stateMutability": "nonpayable",
      "type": "function"
    },
    {
      "constant": false,
      "inputs": [
        {
          "name": "_newCOO",
          "type": "address"
        }
      ],
      "name": "setCOO",
      "outputs": [],
      "payable": false,
      "stateMutability": "nonpayable",
      "type": "function"
    },
    {
      "constant": false,
      "inputs": [],
      "name": "unpause",
      "outputs": [],
      "payable": false,
      "stateMutability": "nonpayable",
      "type": "function"
    },
    {
      "constant": true,
      "inputs": [
        {
          "name": "",
          "type": "uint256"
        }
      ],
      "name": "sireAllowedToAddress",
      "outputs": [
        {
          "name": "",
          "type": "address"
        }
      ],
      "payable": false,
      "stateMutability": "view",
      "type": "function"
    },
    {
      "constant": true,
      "inputs": [
        {
          "name": "",
          "type": "uint256"
        }
      ],
      "name": "kittyIndexToApproved",
      "outputs": [
        {
          "name": "",
          "type": "address"
        }
      ],
      "payable": false,
      "stateMutability": "view",
      "type": "function"
    },
    {
      "constant": false,
      "inputs": [
        {
          "name": "_newCFO",
          "type": "address"
        }
      ],
      "name": "setCFO",
      "outputs": [],
      "payable": false,
      "stateMutability": "nonpayable",
      "type": "function"
    },
    {
      "constant": false,
      "inputs": [
        {
          "name": "secs",
          "type": "uint256"
        }
      ],
      "name": "setSecondsPerBlock",
      "outputs": [],
      "payable": false,
      "stateMutability": "nonpayable",
      "type": "function"
    },
    {
      "constant": true,
      "inputs": [],
      "name": "paused",
      "outputs": [
        {
          "name": "",
          "type": "bool"
        }
      ],
      "payable": false,
      "stateMutability": "view",
      "type": "function"
    },
    {
      "constant": true,
      "inputs": [
        {
          "name": "_tokenId",
          "type": "uint256"
        }
      ],
      "name": "ownerOf",
      "outputs": [
        {
          "name": "owner",
          "type": "address"
        }
      ],
      "payable": false,
      "stateMutability": "view",
      "type": "function"
    },
    {
      "constant": true,
      "inputs": [
        {
          "name": "_owner",
          "type": "address"
        }
      ],
      "name": "balanceOf",
      "outputs": [
        {
          "name": "count",
          "type": "uint256"
        }
      ],
      "payable": false,
      "stateMutability": "view",
      "type": "function"
    },
    {
      "constant": true,
      "inputs": [],
      "name": "secondsPerBlock",
      "outputs": [
        {
          "name": "",
          "type": "uint256"
        }
      ],
      "payable": false,
      "stateMutability": "view",
      "type": "function"
    },
    {
      "constant": false,
      "inputs": [],
      "name": "pause",
      "outputs": [],
      "payable": false,
      "stateMutability": "nonpayable",
      "type": "function"
    },
    {
      "constant": true,
      "inputs": [
        {
          "name": "_owner",
          "type": "address"
        }
      ],
      "name": "tokensOfOwner",
      "outputs": [
        {
          "name": "ownerTokens",
          "type": "uint256[]"
        }
      ],
      "payable": false,
      "stateMutability": "view",
      "type": "function"
    },
    {
      "constant": true,
      "inputs": [],
      "name": "symbol",
      "outputs": [
        {
          "name": "",
          "type": "string"
        }
      ],
      "payable": false,
      "stateMutability": "view",
      "type": "function"
    },
    {
      "constant": true,
      "inputs": [
        {
          "name": "",
          "type": "uint256"
        }
      ],
      "name": "cooldowns",
      "outputs": [
        {
          "name": "",
          "type": "uint32"
        }
      ],
      "payable": false,
      "stateMutability": "view",
      "type": "function"
    },
    {
      "constant": true,
      "inputs": [
        {
          "name": "",
          "type": "uint256"
        }
      ],
      "name": "kittyIndexToOwner",
      "outputs": [
        {
          "name": "",
          "type": "address"
        }
      ],
      "payable": false,
      "stateMutability": "view",
      "type": "function"
    },
    {
      "constant": false,
      "inputs": [
        {
          "name": "_to",
          "type": "address"
        },
        {
          "name": "_tokenId",
          "type": "uint256"
        }
      ],
      "name": "transfer",
      "outputs": [],
      "payable": false,
      "stateMutability": "nonpayable",
      "type": "function"
    },
    {
      "constant": true,
      "inputs": [],
      "name": "cooAddress",
      "outputs": [
        {
          "name": "",
          "type": "address"
        }
      ],
      "payable": false,
      "stateMutability": "view",
      "type": "function"
    },
    {
      "constant": true,
      "inputs": [],
      "name": "autoBirthFee",
      "outputs": [
        {
          "name": "",
          "type": "uint256"
        }
      ],
      "payable": false,
      "stateMutability": "view",
      "type": "function"
    },
    {
      "constant": true,
      "inputs": [],
      "name": "erc721Metadata",
      "outputs": [
        {
          "name": "",
          "type": "address"
        }
      ],
      "payable": false,
      "stateMutability": "view",
      "type": "function"
    },
    {
      "constant": false,
      "inputs": [
        {
          "name": "_contractAddress",
          "type": "address"
        }
      ],
      "name": "setMetadataAddress",
      "outputs": [],
      "payable": false,
      "stateMutability": "nonpayable",
      "type": "function"
    },
    {
      "constant": true,
      "inputs": [],
      "name": "saleAuction",
      "outputs": [
        {
          "name": "",
          "type": "address"
        }
      ],
      "payable": false,
      "stateMutability": "view",
      "type": "function"
    },
    {
      "constant": true,
      "inputs": [],
      "name": "geneScience",
      "outputs": [
        {
          "name": "",
          "type": "address"
        }
      ],
      "payable": false,
      "stateMutability": "view",
      "type": "function"
    },
    {
      "anonymous": false,
      "inputs": [
        {
          "indexed": false,
          "name": "owner",
          "type": "address"
        },
        {
          "indexed": false,
          "name": "matronId",
          "type": "uint256"
        },
        {
          "indexed": false,
          "name": "sireId",
          "type": "uint256"
        },
        {
          "indexed": false,
          "name": "cooldownEndBlock",
          "type": "uint256"
        }
      ],
      "name": "Pregnant",
      "type": "event"
    },
    {
      "anonymous": false,
      "inputs": [
        {
          "indexed": false,
          "name": "from",
          "type": "address"
        },
        {
          "indexed": false,
          "name": "to",
          "type": "address"
        },
        {
          "indexed": false,
          "name": "tokenId",
          "type": "uint256"
        }
      ],
      "name": "Transfer",
      "type": "event"
    },
    {
      "anonymous": false,
      "inputs": [
        {
          "indexed": false,
          "name": "owner",
          "type": "address"
        },
        {
          "indexed": false,
          "name": "approved",
          "type": "address"
        },
        {
          "indexed": false,
          "name": "tokenId",
          "type": "uint256"
        }
      ],
      "name": "Approval",
      "type": "event"
    },
    {
      "anonymous": false,
      "inputs": [
        {
          "indexed": false,
          "name": "owner",
          "type": "address"
        },
        {
          "indexed": false,
          "name": "kittyId",
          "type": "uint256"
        },
        {
          "indexed": false,
          "name": "matronId",
          "type": "uint256"
        },
        {
          "indexed": false,
          "name": "sireId",
          "type": "uint256"
        },
        {
          "indexed": false,
          "name": "genes",
          "type": "uint256"
        }
      ],
      "name": "Birth",
      "type": "event"
    },
    {
      "anonymous": false,
      "inputs": [
        {
          "indexed": false,
          "name": "newContract",
          "type": "address"
        }
      ],
      "name": "ContractUpgrade",
      "type": "event"
    },
    {
      "constant": false,
      "inputs": [
        {
          "name": "_address",
          "type": "address"
        }
      ],
      "name": "setGeneScienceAddress",
      "outputs": [],
      "payable": false,
      "stateMutability": "nonpayable",
      "type": "function"
    },
    {
      "constant": false,
      "inputs": [
        {
          "name": "_addr",
          "type": "address"
        },
        {
          "name": "_sireId",
          "type": "uint256"
        }
      ],
      "name": "approveSiring",
      "outputs": [],
      "payable": false,
      "stateMutability": "nonpayable",
      "type": "function"
    },
    {
      "constant": false,
      "inputs": [
        {
          "name": "val",
          "type": "uint256"
        }
      ],
      "name": "setAutoBirthFee",
      "outputs": [],
      "payable": false,
      "stateMutability": "nonpayable",
      "type": "function"
    },
    {
      "constant": true,
      "inputs": [
        {
          "name": "_kittyId",
          "type": "uint256"
        }
      ],
      "name": "isReadyToBreed",
      "outputs": [
        {
          "name": "",
          "type": "bool"
        }
      ],
      "payable": false,
      "stateMutability": "view",
      "type": "function"
    },
    {
      "constant": true,
      "inputs": [
        {
          "name": "_kittyId",
          "type": "uint256"
        }
      ],
      "name": "isPregnant",
      "outputs": [
        {
          "name": "",
          "type": "bool"
        }
      ],
      "payable": false,
      "stateMutability": "view",
      "type": "function"
    },
    {
      "constant": true,
      "inputs": [
        {
          "name": "_matronId",
          "type": "uint256"
        },
        {
          "name": "_sireId",
          "type": "uint256"
        }
      ],
      "name": "canBreedWith",
      "outputs": [
        {
          "name": "",
          "type": "bool"
        }
      ],
      "payable": false,
      "stateMutability": "view",
      "type": "function"
    },
    {
      "constant": false,
      "inputs": [
        {
          "name": "_matronId",
          "type": "uint256"
        },
        {
          "name": "_sireId",
          "type": "uint256"
        }
      ],
      "name": "breedWithAuto",
      "outputs": [],
      "payable": true,
      "stateMutability": "payable",
      "type": "function"
    },
    {
      "constant": false,
      "inputs": [
        {
          "name": "_matronId",
          "type": "uint256"
        }
      ],
      "name": "giveBirth",
      "outputs": [
        {
          "name": "",
          "type": "uint256"
        }
      ],
      "payable": false,
      "stateMutability": "nonpayable",
      "type": "function"
    }
  ],
  "bytecode": "0x60606040526000600260146101000a81548160ff0219169083151502179055506101c060405190810160405280603c63ffffffff1663ffffffff168152602001607863ffffffff1663ffffffff16815260200161012c63ffffffff1663ffffffff16815260200161025863ffffffff1663ffffffff16815260200161070863ffffffff1663ffffffff168152602001610e1063ffffffff1663ffffffff168152602001611c2063ffffffff1663ffffffff16815260200161384063ffffffff1663ffffffff16815260200161708063ffffffff1663ffffffff16815260200161e10063ffffffff1663ffffffff1681526020016201518063ffffffff1663ffffffff1681526020016202a30063ffffffff1663ffffffff1681526020016205460063ffffffff1663ffffffff16815260200162093a8063ffffffff1663ffffffff16815250600390600e6200015692919062000179565b50600f60055566071afd498d0000600e5534156200017357600080fd5b62000259565b82600e600701600890048101928215620002105791602002820160005b83821115620001dc57835183826101000a81548163ffffffff021916908363ffffffff160217905550926020019260040160208160030104928301926001030262000196565b80156200020e5782816101000a81549063ffffffff0219169055600401602081600301049283019260010302620001dc565b505b5090506200021f919062000223565b5090565b6200025691905b808211156200025257600081816101000a81549063ffffffff0219169055506001016200022a565b5090565b90565b613aeb80620002696000396000f3006060604052600436106101f9576000357c0100000000000000000000000000000000000000000000000000000000900463ffffffff16806301ffc9a7146101fe5780630519ce79146102585780630560ff44146102ad57806306fdde031461035d578063095ea7b3146103eb5780630a0f81681461042d57806318160ddd14610482578063183a7947146104ab5780631940a936146104d457806321717ebf1461050f57806323b872dd1461056457806324e7a38a146105c557806327d7874c146105fe5780632ba73c15146106375780633f4ba83a1461067057806346116e6f1461068557806346d22c70146106e8578063481af3d31461072c5780634b85fd551461078f5780634dfff04f146107b25780634e0a3379146107f45780635663896e1461082d5780635c975abb146108505780636352211e1461087d57806370a08231146108e05780637a7d49371461092d5780638456cb59146109565780638462151c1461096b57806388c2a0bf146109f957806395d89b4114610a305780639d6fac6f14610abe578063a45f4bfc14610b01578063a9059cbb14610b64578063b047fb5014610ba6578063b0c35c0514610bfb578063bc4006f514610c24578063d3e6f49f14610c79578063e17b25af14610cb4578063e6cbe35114610ced578063f2b47d5214610d42578063f7d8c88314610d97575b600080fd5b341561020957600080fd5b61023e60048080357bffffffffffffffffffffffffffffffffffffffffffffffffffffffff1916906020019091905050610db8565b604051808215151515815260200191505060405180910390f35b341561026357600080fd5b61026b6110c9565b604051808273ffffffffffffffffffffffffffffffffffffffff1673ffffffffffffffffffffffffffffffffffffffff16815260200191505060405180910390f35b34156102b857600080fd5b6102e2600480803590602001909190803590602001908201803590602001919091929050506110ef565b6040518080602001828103825283818151815260200191508051906020019080838360005b83811015610322578082015181840152602081019050610307565b50505050905090810190601f16801561034f5780820380516001836020036101000a031916815260200191505b509250505060405180910390f35b341561036857600080fd5b61037061124d565b6040518080602001828103825283818151815260200191508051906020019080838360005b838110156103b0578082015181840152602081019050610395565b50505050905090810190601f1680156103dd5780820380516001836020036101000a031916815260200191505b509250505060405180910390f35b34156103f657600080fd5b61042b600480803573ffffffffffffffffffffffffffffffffffffffff16906020019091908035906020019091905050611286565b005b341561043857600080fd5b610440611364565b604051808273ffffffffffffffffffffffffffffffffffffffff1673ffffffffffffffffffffffffffffffffffffffff16815260200191505060405180910390f35b341561048d57600080fd5b610495611389565b6040518082815260200191505060405180910390f35b34156104b657600080fd5b6104be611399565b6040518082815260200191505060405180910390f35b34156104df57600080fd5b6104f5600480803590602001909190505061139f565b604051808215151515815260200191505060405180910390f35b341561051a57600080fd5b6105226113f1565b604051808273ffffffffffffffffffffffffffffffffffffffff1673ffffffffffffffffffffffffffffffffffffffff16815260200191505060405180910390f35b341561056f57600080fd5b6105c3600480803573ffffffffffffffffffffffffffffffffffffffff1690602001909190803573ffffffffffffffffffffffffffffffffffffffff16906020019091908035906020019091905050611417565b005b34156105d057600080fd5b6105fc600480803573ffffffffffffffffffffffffffffffffffffffff169060200190919050506114e4565b005b341561060957600080fd5b610635600480803573ffffffffffffffffffffffffffffffffffffffff1690602001909190505061160e565b005b341561064257600080fd5b61066e600480803573ffffffffffffffffffffffffffffffffffffffff169060200190919050506116e8565b005b341561067b57600080fd5b6106836117c3565b005b341561069057600080fd5b6106a66004808035906020019091905050611856565b604051808273ffffffffffffffffffffffffffffffffffffffff1673ffffffffffffffffffffffffffffffffffffffff16815260200191505060405180910390f35b34156106f357600080fd5b6107126004808035906020019091908035906020019091905050611889565b604051808215151515815260200191505060405180910390f35b341561073757600080fd5b61074d6004808035906020019091905050611911565b604051808273ffffffffffffffffffffffffffffffffffffffff1673ffffffffffffffffffffffffffffffffffffffff16815260200191505060405180910390f35b341561079a57600080fd5b6107b06004808035906020019091905050611944565b005b34156107bd57600080fd5b6107f2600480803573ffffffffffffffffffffffffffffffffffffffff169060200190919080359060200190919050506119aa565b005b34156107ff57600080fd5b61082b600480803573ffffffffffffffffffffffffffffffffffffffff16906020019091905050611a31565b005b341561083857600080fd5b61084e6004808035906020019091905050611b0c565b005b341561085b57600080fd5b610863611c60565b604051808215151515815260200191505060405180910390f35b341561088857600080fd5b61089e6004808035906020019091905050611c73565b604051808273ffffffffffffffffffffffffffffffffffffffff1673ffffffffffffffffffffffffffffffffffffffff16815260200191505060405180910390f35b34156108eb57600080fd5b610917600480803573ffffffffffffffffffffffffffffffffffffffff16906020019091905050611cec565b6040518082815260200191505060405180910390f35b341561093857600080fd5b610940611d35565b6040518082815260200191505060405180910390f35b341561096157600080fd5b610969611d3b565b005b341561097657600080fd5b6109a2600480803573ffffffffffffffffffffffffffffffffffffffff16906020019091905050611e7f565b6040518080602001828103825283818151815260200191508051906020019060200280838360005b838110156109e55780820151818401526020810190506109ca565b505050509050019250505060405180910390f35b3415610a0457600080fd5b610a1a6004808035906020019091905050611fb6565b6040518082815260200191505060405180910390f35b3415610a3b57600080fd5b610a436123c8565b6040518080602001828103825283818151815260200191508051906020019080838360005b83811015610a83578082015181840152602081019050610a68565b50505050905090810190601f168015610ab05780820380516001836020036101000a031916815260200191505b509250505060405180910390f35b3415610ac957600080fd5b610adf6004808035906020019091905050612401565b604051808263ffffffff1663ffffffff16815260200191505060405180910390f35b3415610b0c57600080fd5b610b226004808035906020019091905050612430565b604051808273ffffffffffffffffffffffffffffffffffffffff1673ffffffffffffffffffffffffffffffffffffffff16815260200191505060405180910390f35b3415610b6f57600080fd5b610ba4600480803573ffffffffffffffffffffffffffffffffffffffff16906020019091908035906020019091905050612463565b005b3415610bb157600080fd5b610bb96125d4565b604051808273ffffffffffffffffffffffffffffffffffffffff1673ffffffffffffffffffffffffffffffffffffffff16815260200191505060405180910390f35b3415610c0657600080fd5b610c0e6125fa565b6040518082815260200191505060405180910390f35b3415610c2f57600080fd5b610c37612600565b604051808273ffffffffffffffffffffffffffffffffffffffff1673ffffffffffffffffffffffffffffffffffffffff16815260200191505060405180910390f35b3415610c8457600080fd5b610c9a6004808035906020019091905050612626565b604051808215151515815260200191505060405180910390f35b3415610cbf57600080fd5b610ceb600480803573ffffffffffffffffffffffffffffffffffffffff16906020019091905050612795565b005b3415610cf857600080fd5b610d00612834565b604051808273ffffffffffffffffffffffffffffffffffffffff1673ffffffffffffffffffffffffffffffffffffffff16815260200191505060405180910390f35b3415610d4d57600080fd5b610d5561285a565b604051808273ffffffffffffffffffffffffffffffffffffffff1673ffffffffffffffffffffffffffffffffffffffff16815260200191505060405180910390f35b610db66004808035906020019091908035906020019091905050612880565b005b600060405180807f737570706f727473496e74657266616365286279746573342900000000000000815250601901905060405180910390207bffffffffffffffffffffffffffffffffffffffffffffffffffffffff1916827bffffffffffffffffffffffffffffffffffffffffffffffffffffffff191614806110c2575060405180807f746f6b656e4d657461646174612875696e743235362c737472696e6729000000815250601d019050604051809103902060405180807f746f6b656e734f664f776e6572286164647265737329000000000000000000008152506016019050604051809103902060405180807f7472616e7366657246726f6d28616464726573732c616464726573732c75696e81526020017f74323536290000000000000000000000000000000000000000000000000000008152506025019050604051809103902060405180807f7472616e7366657228616464726573732c75696e7432353629000000000000008152506019019050604051809103902060405180807f617070726f766528616464726573732c75696e743235362900000000000000008152506018019050604051809103902060405180807f6f776e65724f662875696e7432353629000000000000000000000000000000008152506010019050604051809103902060405180807f62616c616e63654f6628616464726573732900000000000000000000000000008152506012019050604051809103902060405180807f746f74616c537570706c79282900000000000000000000000000000000000000815250600d019050604051809103902060405180807f73796d626f6c28290000000000000000000000000000000000000000000000008152506008019050604051809103902060405180807f6e616d6528290000000000000000000000000000000000000000000000000000815250600601905060405180910390201818181818181818187bffffffffffffffffffffffffffffffffffffffffffffffffffffffff1916827bffffffffffffffffffffffffffffffffffffffffffffffffffffffff1916145b9050919050565b600160009054906101000a900473ffffffffffffffffffffffffffffffffffffffff1681565b6110f76138fa565b6110ff61390e565b60008073ffffffffffffffffffffffffffffffffffffffff16600d60009054906101000a900473ffffffffffffffffffffffffffffffffffffffff1673ffffffffffffffffffffffffffffffffffffffff161415151561115e57600080fd5b600d60009054906101000a900473ffffffffffffffffffffffffffffffffffffffff1673ffffffffffffffffffffffffffffffffffffffff1663cb4799f28787876040518463ffffffff167c010000000000000000000000000000000000000000000000000000000002815260040180848152602001806020018281038252848482818152602001925080828437820191505094505050505060a060405180830381600087803b151561121057600080fd5b5af1151561121d57600080fd5b5050506040518060800180519060200160405280925081935050506112428282612bc1565b925050509392505050565b6040805190810160405280600d81526020017f43727970746f4b6974746965730000000000000000000000000000000000000081525081565b600260149054906101000a900460ff161515156112a257600080fd5b6112ac3382612c19565b15156112b757600080fd5b6112c18183612c85565b7f8c5be1e5ebec7d5bd14f71427d1e84f3dd0314c0f7b2291e5b200ac8c7c3b925338383604051808473ffffffffffffffffffffffffffffffffffffffff1673ffffffffffffffffffffffffffffffffffffffff1681526020018373ffffffffffffffffffffffffffffffffffffffff1673ffffffffffffffffffffffffffffffffffffffff168152602001828152602001935050505060405180910390a15050565b6000809054906101000a900473ffffffffffffffffffffffffffffffffffffffff1681565b6000600160068054905003905090565b600f5481565b600080821115156113af57600080fd5b60006006838154811015156113c057fe5b906000526020600020906002020160010160189054906101000a900463ffffffff1663ffffffff1614159050919050565b600c60009054906101000a900473ffffffffffffffffffffffffffffffffffffffff1681565b600260149054906101000a900460ff1615151561143357600080fd5b600073ffffffffffffffffffffffffffffffffffffffff168273ffffffffffffffffffffffffffffffffffffffff161415151561146f57600080fd5b3073ffffffffffffffffffffffffffffffffffffffff168273ffffffffffffffffffffffffffffffffffffffff16141515156114aa57600080fd5b6114b43382612cdb565b15156114bf57600080fd5b6114c98382612c19565b15156114d457600080fd5b6114df838383612d47565b505050565b60008060009054906101000a900473ffffffffffffffffffffffffffffffffffffffff1673ffffffffffffffffffffffffffffffffffffffff163373ffffffffffffffffffffffffffffffffffffffff1614151561154157600080fd5b8190508073ffffffffffffffffffffffffffffffffffffffff166354c15b826040518163ffffffff167c0100000000000000000000000000000000000000000000000000000000028152600401602060405180830381600087803b15156115a757600080fd5b5af115156115b457600080fd5b5050506040518051905015156115c957600080fd5b80601060006101000a81548173ffffffffffffffffffffffffffffffffffffffff021916908373ffffffffffffffffffffffffffffffffffffffff1602179055505050565b6000809054906101000a900473ffffffffffffffffffffffffffffffffffffffff1673ffffffffffffffffffffffffffffffffffffffff163373ffffffffffffffffffffffffffffffffffffffff1614151561166957600080fd5b600073ffffffffffffffffffffffffffffffffffffffff168173ffffffffffffffffffffffffffffffffffffffff16141515156116a557600080fd5b806000806101000a81548173ffffffffffffffffffffffffffffffffffffffff021916908373ffffffffffffffffffffffffffffffffffffffff16021790555050565b6000809054906101000a900473ffffffffffffffffffffffffffffffffffffffff1673ffffffffffffffffffffffffffffffffffffffff163373ffffffffffffffffffffffffffffffffffffffff1614151561174357600080fd5b600073ffffffffffffffffffffffffffffffffffffffff168173ffffffffffffffffffffffffffffffffffffffff161415151561177f57600080fd5b80600260006101000a81548173ffffffffffffffffffffffffffffffffffffffff021916908373ffffffffffffffffffffffffffffffffffffffff16021790555050565b6000809054906101000a900473ffffffffffffffffffffffffffffffffffffffff1673ffffffffffffffffffffffffffffffffffffffff163373ffffffffffffffffffffffffffffffffffffffff1614151561181e57600080fd5b600260149054906101000a900460ff16151561183957600080fd5b6000600260146101000a81548160ff021916908315150217905550565b600a6020528060005260406000206000915054906101000a900473ffffffffffffffffffffffffffffffffffffffff1681565b6000806000808511151561189c57600080fd5b6000841115156118ab57600080fd5b6006858154811015156118ba57fe5b906000526020600020906002020191506006848154811015156118d957fe5b906000526020600020906002020190506118f582868387612f7f565b801561190757506119068486613194565b5b9250505092915050565b60096020528060005260406000206000915054906101000a900473ffffffffffffffffffffffffffffffffffffffff1681565b600260009054906101000a900473ffffffffffffffffffffffffffffffffffffffff1673ffffffffffffffffffffffffffffffffffffffff163373ffffffffffffffffffffffffffffffffffffffff161415156119a057600080fd5b80600e8190555050565b600260149054906101000a900460ff161515156119c657600080fd5b6119d03382612c19565b15156119db57600080fd5b81600a600083815260200190815260200160002060006101000a81548173ffffffffffffffffffffffffffffffffffffffff021916908373ffffffffffffffffffffffffffffffffffffffff1602179055505050565b6000809054906101000a900473ffffffffffffffffffffffffffffffffffffffff1673ffffffffffffffffffffffffffffffffffffffff163373ffffffffffffffffffffffffffffffffffffffff16141515611a8c57600080fd5b600073ffffffffffffffffffffffffffffffffffffffff168173ffffffffffffffffffffffffffffffffffffffff1614151515611ac857600080fd5b80600160006101000a81548173ffffffffffffffffffffffffffffffffffffffff021916908373ffffffffffffffffffffffffffffffffffffffff16021790555050565b600260009054906101000a900473ffffffffffffffffffffffffffffffffffffffff1673ffffffffffffffffffffffffffffffffffffffff163373ffffffffffffffffffffffffffffffffffffffff161480611bb457506000809054906101000a900473ffffffffffffffffffffffffffffffffffffffff1673ffffffffffffffffffffffffffffffffffffffff163373ffffffffffffffffffffffffffffffffffffffff16145b80611c0c5750600160009054906101000a900473ffffffffffffffffffffffffffffffffffffffff1673ffffffffffffffffffffffffffffffffffffffff163373ffffffffffffffffffffffffffffffffffffffff16145b1515611c1757600080fd5b60036000600e81101515611c2757fe5b600891828204019190066004029054906101000a900463ffffffff1663ffffffff1681101515611c5657600080fd5b8060058190555050565b600260149054906101000a900460ff1681565b60006007600083815260200190815260200160002060009054906101000a900473ffffffffffffffffffffffffffffffffffffffff169050600073ffffffffffffffffffffffffffffffffffffffff168173ffffffffffffffffffffffffffffffffffffffff1614151515611ce757600080fd5b919050565b6000600860008373ffffffffffffffffffffffffffffffffffffffff1673ffffffffffffffffffffffffffffffffffffffff168152602001908152602001600020549050919050565b60055481565b600260009054906101000a900473ffffffffffffffffffffffffffffffffffffffff1673ffffffffffffffffffffffffffffffffffffffff163373ffffffffffffffffffffffffffffffffffffffff161480611de357506000809054906101000a900473ffffffffffffffffffffffffffffffffffffffff1673ffffffffffffffffffffffffffffffffffffffff163373ffffffffffffffffffffffffffffffffffffffff16145b80611e3b5750600160009054906101000a900473ffffffffffffffffffffffffffffffffffffffff1673ffffffffffffffffffffffffffffffffffffffff163373ffffffffffffffffffffffffffffffffffffffff16145b1515611e4657600080fd5b600260149054906101000a900460ff16151515611e6257600080fd5b6001600260146101000a81548160ff021916908315150217905550565b611e87613939565b6000611e91613939565b6000806000611e9f87611cec565b94506000851415611ed1576000604051805910611eb95750595b90808252806020026020018201604052509550611fac565b84604051805910611edf5750595b90808252806020026020018201604052509350611efa611389565b925060009150600190505b8281111515611fa8578673ffffffffffffffffffffffffffffffffffffffff166007600083815260200190815260200160002060009054906101000a900473ffffffffffffffffffffffffffffffffffffffff1673ffffffffffffffffffffffffffffffffffffffff161415611f9b57808483815181101515611f8457fe5b906020019060200201818152505081806001019250505b8080600101915050611f05565b8395505b5050505050919050565b600080600080600080600080600260149054906101000a900460ff16151515611fde57600080fd5b600689815481101515611fed57fe5b9060005260206000209060020201965060008760010160009054906101000a900467ffffffffffffffff1667ffffffffffffffff161415151561202f57600080fd5b612165876101006040519081016040529081600082015481526020016001820160009054906101000a900467ffffffffffffffff1667ffffffffffffffff1667ffffffffffffffff1681526020016001820160089054906101000a900467ffffffffffffffff1667ffffffffffffffff1667ffffffffffffffff1681526020016001820160109054906101000a900463ffffffff1663ffffffff1663ffffffff1681526020016001820160149054906101000a900463ffffffff1663ffffffff1663ffffffff1681526020016001820160189054906101000a900463ffffffff1663ffffffff1663ffffffff16815260200160018201601c9054906101000a900461ffff1661ffff1661ffff16815260200160018201601e9054906101000a900461ffff1661ffff1661ffff16815250506132a7565b151561217057600080fd5b8660010160189054906101000a900463ffffffff1663ffffffff16955060068681548110151561219c57fe5b9060005260206000209060020201945086600101601e9054906101000a900461ffff16935086600101601e9054906101000a900461ffff1661ffff1685600101601e9054906101000a900461ffff1661ffff16111561220b5784600101601e9054906101000a900461ffff1693505b601060009054906101000a900473ffffffffffffffffffffffffffffffffffffffff1673ffffffffffffffffffffffffffffffffffffffff16630d9f5aed8860000154876000015460018b60010160089054906101000a900467ffffffffffffffff16036040518463ffffffff167c0100000000000000000000000000000000000000000000000000000000028152600401808481526020018381526020018267ffffffffffffffff1681526020019350505050602060405180830381600087803b15156122d857600080fd5b5af115156122e557600080fd5b505050604051805190509250600760008a815260200190815260200160002060009054906101000a900473ffffffffffffffffffffffffffffffffffffffff169150612355898860010160189054906101000a900463ffffffff1663ffffffff166001870161ffff1686866132e2565b90508660010160186101000a81549063ffffffff0219169055600f60008154809291906001900391905055503373ffffffffffffffffffffffffffffffffffffffff166108fc600e549081150290604051600060405180830381858888f193505050505080975050505050505050919050565b6040805190810160405280600281526020017f434b00000000000000000000000000000000000000000000000000000000000081525081565b600381600e8110151561241057fe5b60089182820401919006600402915054906101000a900463ffffffff1681565b60076020528060005260406000206000915054906101000a900473ffffffffffffffffffffffffffffffffffffffff1681565b600260149054906101000a900460ff1615151561247f57600080fd5b600073ffffffffffffffffffffffffffffffffffffffff168273ffffffffffffffffffffffffffffffffffffffff16141515156124bb57600080fd5b3073ffffffffffffffffffffffffffffffffffffffff168273ffffffffffffffffffffffffffffffffffffffff16141515156124f657600080fd5b600b60009054906101000a900473ffffffffffffffffffffffffffffffffffffffff1673ffffffffffffffffffffffffffffffffffffffff168273ffffffffffffffffffffffffffffffffffffffff161415151561255357600080fd5b600c60009054906101000a900473ffffffffffffffffffffffffffffffffffffffff1673ffffffffffffffffffffffffffffffffffffffff168273ffffffffffffffffffffffffffffffffffffffff16141515156125b057600080fd5b6125ba3382612c19565b15156125c557600080fd5b6125d0338383612d47565b5050565b600260009054906101000a900473ffffffffffffffffffffffffffffffffffffffff1681565b600e5481565b600d60009054906101000a900473ffffffffffffffffffffffffffffffffffffffff1681565b60008060008311151561263857600080fd5b60068381548110151561264757fe5b9060005260206000209060020201905061278d816101006040519081016040529081600082015481526020016001820160009054906101000a900467ffffffffffffffff1667ffffffffffffffff1667ffffffffffffffff1681526020016001820160089054906101000a900467ffffffffffffffff1667ffffffffffffffff1667ffffffffffffffff1681526020016001820160109054906101000a900463ffffffff1663ffffffff1663ffffffff1681526020016001820160149054906101000a900463ffffffff1663ffffffff1663ffffffff1681526020016001820160189054906101000a900463ffffffff1663ffffffff1663ffffffff16815260200160018201601c9054906101000a900461ffff1661ffff1661ffff16815260200160018201601e9054906101000a900461ffff1661ffff1661ffff16815250506135d5565b915050919050565b6000809054906101000a900473ffffffffffffffffffffffffffffffffffffffff1673ffffffffffffffffffffffffffffffffffffffff163373ffffffffffffffffffffffffffffffffffffffff161415156127f057600080fd5b80600d60006101000a81548173ffffffffffffffffffffffffffffffffffffffff021916908373ffffffffffffffffffffffffffffffffffffffff16021790555050565b600b60009054906101000a900473ffffffffffffffffffffffffffffffffffffffff1681565b601060009054906101000a900473ffffffffffffffffffffffffffffffffffffffff1681565b600080600260149054906101000a900460ff1615151561289f57600080fd5b600e5434101515156128b057600080fd5b6128ba3385612c19565b15156128c557600080fd5b6128cf8385613194565b15156128da57600080fd5b6006848154811015156128e957fe5b90600052602060002090600202019150612a2f826101006040519081016040529081600082015481526020016001820160009054906101000a900467ffffffffffffffff1667ffffffffffffffff1667ffffffffffffffff1681526020016001820160089054906101000a900467ffffffffffffffff1667ffffffffffffffff1667ffffffffffffffff1681526020016001820160109054906101000a900463ffffffff1663ffffffff1663ffffffff1681526020016001820160149054906101000a900463ffffffff1663ffffffff1663ffffffff1681526020016001820160189054906101000a900463ffffffff1663ffffffff1663ffffffff16815260200160018201601c9054906101000a900461ffff1661ffff1661ffff16815260200160018201601e9054906101000a900461ffff1661ffff1661ffff16815250506135d5565b1515612a3a57600080fd5b600683815481101515612a4957fe5b90600052602060002090600202019050612b8f816101006040519081016040529081600082015481526020016001820160009054906101000a900467ffffffffffffffff1667ffffffffffffffff1667ffffffffffffffff1681526020016001820160089054906101000a900467ffffffffffffffff1667ffffffffffffffff1667ffffffffffffffff1681526020016001820160109054906101000a900463ffffffff1663ffffffff1663ffffffff1681526020016001820160149054906101000a900463ffffffff1663ffffffff1663ffffffff1681526020016001820160189054906101000a900463ffffffff1663ffffffff1663ffffffff16815260200160018201601c9054906101000a900461ffff1661ffff1661ffff16815260200160018201601e9054906101000a900461ffff1661ffff1661ffff16815250506135d5565b1515612b9a57600080fd5b612ba682858386612f7f565b1515612bb157600080fd5b612bbb848461360f565b50505050565b612bc96138fa565b612bd16138fa565b60008084604051805910612be25750595b9080825280601f01601f19166020018201604052509250602083019150859050612c0d8282876137d9565b82935050505092915050565b60008273ffffffffffffffffffffffffffffffffffffffff166007600084815260200190815260200160002060009054906101000a900473ffffffffffffffffffffffffffffffffffffffff1673ffffffffffffffffffffffffffffffffffffffff1614905092915050565b806009600084815260200190815260200160002060006101000a81548173ffffffffffffffffffffffffffffffffffffffff021916908373ffffffffffffffffffffffffffffffffffffffff1602179055505050565b60008273ffffffffffffffffffffffffffffffffffffffff166009600084815260200190815260200160002060009054906101000a900473ffffffffffffffffffffffffffffffffffffffff1673ffffffffffffffffffffffffffffffffffffffff1614905092915050565b600860008373ffffffffffffffffffffffffffffffffffffffff1673ffffffffffffffffffffffffffffffffffffffff16815260200190815260200160002060008154809291906001019190505550816007600083815260200190815260200160002060006101000a81548173ffffffffffffffffffffffffffffffffffffffff021916908373ffffffffffffffffffffffffffffffffffffffff160217905550600073ffffffffffffffffffffffffffffffffffffffff168373ffffffffffffffffffffffffffffffffffffffff16141515612edb57600860008473ffffffffffffffffffffffffffffffffffffffff1673ffffffffffffffffffffffffffffffffffffffff1681526020019081526020016000206000815480929190600190039190505550600a600082815260200190815260200160002060006101000a81549073ffffffffffffffffffffffffffffffffffffffff02191690556009600082815260200190815260200160002060006101000a81549073ffffffffffffffffffffffffffffffffffffffff02191690555b7fddf252ad1be2c89b69c2b068fc378daa952ba7f163c4a11628f55a4df523b3ef838383604051808473ffffffffffffffffffffffffffffffffffffffff1673ffffffffffffffffffffffffffffffffffffffff1681526020018373ffffffffffffffffffffffffffffffffffffffff1673ffffffffffffffffffffffffffffffffffffffff168152602001828152602001935050505060405180910390a1505050565b600081841415612f92576000905061318c565b818560010160109054906101000a900463ffffffff1663ffffffff161480612fd35750818560010160149054906101000a900463ffffffff1663ffffffff16145b15612fe1576000905061318c565b838360010160109054906101000a900463ffffffff1663ffffffff1614806130225750838360010160149054906101000a900463ffffffff1663ffffffff16145b15613030576000905061318c565b60008360010160109054906101000a900463ffffffff1663ffffffff161480613073575060008560010160109054906101000a900463ffffffff1663ffffffff16145b15613081576001905061318c565b8460010160109054906101000a900463ffffffff1663ffffffff168360010160109054906101000a900463ffffffff1663ffffffff1614806130f657508460010160149054906101000a900463ffffffff1663ffffffff168360010160109054906101000a900463ffffffff1663ffffffff16145b15613104576000905061318c565b8460010160109054906101000a900463ffffffff1663ffffffff168360010160149054906101000a900463ffffffff1663ffffffff16148061317957508460010160149054906101000a900463ffffffff1663ffffffff168360010160149054906101000a900463ffffffff1663ffffffff16145b15613187576000905061318c565b600190505b949350505050565b60008060006007600085815260200190815260200160002060009054906101000a900473ffffffffffffffffffffffffffffffffffffffff1691506007600086815260200190815260200160002060009054906101000a900473ffffffffffffffffffffffffffffffffffffffff1690508073ffffffffffffffffffffffffffffffffffffffff168273ffffffffffffffffffffffffffffffffffffffff16148061329d57508173ffffffffffffffffffffffffffffffffffffffff16600a600087815260200190815260200160002060009054906101000a900473ffffffffffffffffffffffffffffffffffffffff1673ffffffffffffffffffffffffffffffffffffffff16145b9250505092915050565b6000808260a0015163ffffffff16141580156132db57504367ffffffffffffffff16826040015167ffffffffffffffff1611155b9050919050565b6000806132ed61394d565b60008863ffffffff168914151561330357600080fd5b8763ffffffff168814151561331757600080fd5b8661ffff168714151561332957600080fd5b60028781151561333557fe5b049250600d8361ffff16111561334a57600d92505b610100604051908101604052808781526020014267ffffffffffffffff168152602001600067ffffffffffffffff1681526020018a63ffffffff1681526020018963ffffffff168152602001600063ffffffff1681526020018461ffff1681526020018861ffff1681525091506001600680548060010182816133cd91906139c1565b916000526020600020906002020160008590919091506000820151816000015560208201518160010160006101000a81548167ffffffffffffffff021916908367ffffffffffffffff16021790555060408201518160010160086101000a81548167ffffffffffffffff021916908367ffffffffffffffff16021790555060608201518160010160106101000a81548163ffffffff021916908363ffffffff16021790555060808201518160010160146101000a81548163ffffffff021916908363ffffffff16021790555060a08201518160010160186101000a81548163ffffffff021916908363ffffffff16021790555060c082015181600101601c6101000a81548161ffff021916908361ffff16021790555060e082015181600101601e6101000a81548161ffff021916908361ffff16021790555050500390508063ffffffff168114151561351f57600080fd5b7f0a5311bd2a6608f08a180df2ee7c5946819a649b204b554bb8e39825b2c50ad58582846060015163ffffffff16856080015163ffffffff168660000151604051808673ffffffffffffffffffffffffffffffffffffffff1673ffffffffffffffffffffffffffffffffffffffff1681526020018581526020018481526020018381526020018281526020019550505050505060405180910390a16135c660008683612d47565b80935050505095945050505050565b6000808260a0015163ffffffff1614801561360857504367ffffffffffffffff16826040015167ffffffffffffffff1611155b9050919050565b60008060068381548110151561362157fe5b9060005260206000209060020201915060068481548110151561364057fe5b90600052602060002090600202019050828160010160186101000a81548163ffffffff021916908363ffffffff16021790555061367c82613824565b61368581613824565b600a600085815260200190815260200160002060006101000a81549073ffffffffffffffffffffffffffffffffffffffff0219169055600a600084815260200190815260200160002060006101000a81549073ffffffffffffffffffffffffffffffffffffffff0219169055600f600081548092919060010191905055507f241ea03ca20251805084d27d4440371c34a0b85ff108f6bb5611248f73818b806007600086815260200190815260200160002060009054906101000a900473ffffffffffffffffffffffffffffffffffffffff1685858460010160089054906101000a900467ffffffffffffffff16604051808573ffffffffffffffffffffffffffffffffffffffff1673ffffffffffffffffffffffffffffffffffffffff1681526020018481526020018381526020018267ffffffffffffffff16815260200194505050505060405180910390a150505050565b60005b60208210151561380157825184526020840193506020830192506020820391506137dc565b6001826020036101000a0390508019835116818551168181178652505050505050565b43600554600383600101601c9054906101000a900461ffff1661ffff16600e8110151561384d57fe5b600891828204019190066004029054906101000a900463ffffffff1663ffffffff1681151561387857fe5b04018160010160086101000a81548167ffffffffffffffff021916908367ffffffffffffffff160217905550600d81600101601c9054906101000a900461ffff1661ffff1610156138f757600181600101601c8282829054906101000a900461ffff160192506101000a81548161ffff021916908361ffff1602179055505b50565b602060405190810160405280600081525090565b6080604051908101604052806004905b600080191681526020019060019003908161391e5790505090565b602060405190810160405280600081525090565b6101006040519081016040528060008152602001600067ffffffffffffffff168152602001600067ffffffffffffffff168152602001600063ffffffff168152602001600063ffffffff168152602001600063ffffffff168152602001600061ffff168152602001600061ffff1681525090565b8154818355818115116139ee576002028160020283600052602060002091820191016139ed91906139f3565b5b505050565b613abc91905b80821115613ab8576000808201600090556001820160006101000a81549067ffffffffffffffff02191690556001820160086101000a81549067ffffffffffffffff02191690556001820160106101000a81549063ffffffff02191690556001820160146101000a81549063ffffffff02191690556001820160186101000a81549063ffffffff021916905560018201601c6101000a81549061ffff021916905560018201601e6101000a81549061ffff0219169055506002016139f9565b5090565b905600a165627a7a723058200e8fb34dea012db00f6059938a826964226db7f4975d2f94ff8074c96734bade0029",
  "source": "/// @title A facet of KittyCore that manages Kitty siring, gestation, and birth.\n/// @author Axiom Zen (https://www.axiomzen.co)\n/// @dev See the KittyCore contract documentation to understand how the various contract facets are arranged.\nimport \"./KittyOwnership.sol\";\nimport \"./GeneScienceInterface.sol\";\n\n\ncontract KittyBreeding is KittyOwnership {\n\n    /// @dev The Pregnant event is fired when two cats successfully breed and the pregnancy\n    ///  timer begins for the matron.\n    event Pregnant(address owner, uint256 matronId, uint256 sireId, uint256 cooldownEndBlock);\n\n    /// @notice The minimum payment required to use breedWithAuto(). This fee goes towards\n    ///  the gas cost paid by whatever calls giveBirth(), and can be dynamically updated by\n    ///  the COO role as the gas price changes.\n    uint256 public autoBirthFee = 2 finney;\n\n    // Keeps track of number of pregnant kitties.\n    uint256 public pregnantKitties;\n\n    /// @dev The address of the sibling contract that is used to implement the sooper-sekret\n    ///  genetic combination algorithm.\n    GeneScienceInterface public geneScience;\n\n    /// @dev Update the address of the genetic contract, can only be called by the CEO.\n    /// @param _address An address of a GeneScience contract instance to be used from this point forward.\n    function setGeneScienceAddress(address _address) external onlyCEO {\n        GeneScienceInterface candidateContract = GeneScienceInterface(_address);\n\n        // NOTE: verify that a contract is what we expect - https://github.com/Lunyr/crowdsale-contracts/blob/cfadd15986c30521d8ba7d5b6f57b4fefcc7ac38/contracts/LunyrToken.sol#L117\n        require(candidateContract.isGeneScience());\n\n        // Set the new contract address\n        geneScience = candidateContract;\n    }\n\n    /// @dev Checks that a given kitten is able to breed. Requires that the\n    ///  current cooldown is finished (for sires) and also checks that there is\n    ///  no pending pregnancy.\n    function _isReadyToBreed(Kitty _kit) internal view returns (bool) {\n        // In addition to checking the cooldownEndBlock, we also need to check to see if\n        // the cat has a pending birth; there can be some period of time between the end\n        // of the pregnacy timer and the birth event.\n        return (_kit.siringWithId == 0) && (_kit.cooldownEndBlock <= uint64(block.number));\n    }\n\n    /// @dev Check if a sire has authorized breeding with this matron. True if both sire\n    ///  and matron have the same owner, or if the sire has given siring permission to\n    ///  the matron's owner (via approveSiring()).\n    function _isSiringPermitted(uint256 _sireId, uint256 _matronId) internal view returns (bool) {\n        address matronOwner = kittyIndexToOwner[_matronId];\n        address sireOwner = kittyIndexToOwner[_sireId];\n\n        // Siring is okay if they have same owner, or if the matron's owner was given\n        // permission to breed with this sire.\n        return (matronOwner == sireOwner || sireAllowedToAddress[_sireId] == matronOwner);\n    }\n\n    /// @dev Set the cooldownEndTime for the given Kitty, based on its current cooldownIndex.\n    ///  Also increments the cooldownIndex (unless it has hit the cap).\n    /// @param _kitten A reference to the Kitty in storage which needs its timer started.\n    function _triggerCooldown(Kitty storage _kitten) internal {\n        // Compute an estimation of the cooldown time in blocks (based on current cooldownIndex).\n        _kitten.cooldownEndBlock = uint64((cooldowns[_kitten.cooldownIndex]/secondsPerBlock) + block.number);\n\n        // Increment the breeding count, clamping it at 13, which is the length of the\n        // cooldowns array. We could check the array size dynamically, but hard-coding\n        // this as a constant saves gas. Yay, Solidity!\n        if (_kitten.cooldownIndex < 13) {\n            _kitten.cooldownIndex += 1;\n        }\n    }\n\n    /// @notice Grants approval to another user to sire with one of your Kitties.\n    /// @param _addr The address that will be able to sire with your Kitty. Set to\n    ///  address(0) to clear all siring approvals for this Kitty.\n    /// @param _sireId A Kitty that you own that _addr will now be able to sire with.\n    function approveSiring(address _addr, uint256 _sireId)\n        external\n        whenNotPaused\n    {\n        require(_owns(msg.sender, _sireId));\n        sireAllowedToAddress[_sireId] = _addr;\n    }\n\n    /// @dev Updates the minimum payment required for calling giveBirthAuto(). Can only\n    ///  be called by the COO address. (This fee is used to offset the gas cost incurred\n    ///  by the autobirth daemon).\n    function setAutoBirthFee(uint256 val) external onlyCOO {\n        autoBirthFee = val;\n    }\n\n    /// @dev Checks to see if a given Kitty is pregnant and (if so) if the gestation\n    ///  period has passed.\n    function _isReadyToGiveBirth(Kitty _matron) private view returns (bool) {\n        return (_matron.siringWithId != 0) && (_matron.cooldownEndBlock <= uint64(block.number));\n    }\n\n    /// @notice Checks that a given kitten is able to breed (i.e. it is not pregnant or\n    ///  in the middle of a siring cooldown).\n    /// @param _kittyId reference the id of the kitten, any user can inquire about it\n    function isReadyToBreed(uint256 _kittyId)\n        public\n        view\n        returns (bool)\n    {\n        require(_kittyId > 0);\n        Kitty storage kit = kitties[_kittyId];\n        return _isReadyToBreed(kit);\n    }\n\n    /// @dev Checks whether a kitty is currently pregnant.\n    /// @param _kittyId reference the id of the kitten, any user can inquire about it\n    function isPregnant(uint256 _kittyId)\n        public\n        view\n        returns (bool)\n    {\n        require(_kittyId > 0);\n        // A kitty is pregnant if and only if this field is set\n        return kitties[_kittyId].siringWithId != 0;\n    }\n\n    /// @dev Internal check to see if a given sire and matron are a valid mating pair. DOES NOT\n    ///  check ownership permissions (that is up to the caller).\n    /// @param _matron A reference to the Kitty struct of the potential matron.\n    /// @param _matronId The matron's ID.\n    /// @param _sire A reference to the Kitty struct of the potential sire.\n    /// @param _sireId The sire's ID\n    function _isValidMatingPair(\n        Kitty storage _matron,\n        uint256 _matronId,\n        Kitty storage _sire,\n        uint256 _sireId\n    )\n        private\n        view\n        returns(bool)\n    {\n        // A Kitty can't breed with itself!\n        if (_matronId == _sireId) {\n            return false;\n        }\n\n        // Kitties can't breed with their parents.\n        if (_matron.matronId == _sireId || _matron.sireId == _sireId) {\n            return false;\n        }\n        if (_sire.matronId == _matronId || _sire.sireId == _matronId) {\n            return false;\n        }\n\n        // We can short circuit the sibling check (below) if either cat is\n        // gen zero (has a matron ID of zero).\n        if (_sire.matronId == 0 || _matron.matronId == 0) {\n            return true;\n        }\n\n        // Kitties can't breed with full or half siblings.\n        if (_sire.matronId == _matron.matronId || _sire.matronId == _matron.sireId) {\n            return false;\n        }\n        if (_sire.sireId == _matron.matronId || _sire.sireId == _matron.sireId) {\n            return false;\n        }\n\n        // Everything seems cool! Let's get DTF.\n        return true;\n    }\n\n    /// @dev Internal check to see if a given sire and matron are a valid mating pair for\n    ///  breeding via auction (i.e. skips ownership and siring approval checks).\n    function _canBreedWithViaAuction(uint256 _matronId, uint256 _sireId)\n        internal\n        view\n        returns (bool)\n    {\n        Kitty storage matron = kitties[_matronId];\n        Kitty storage sire = kitties[_sireId];\n        return _isValidMatingPair(matron, _matronId, sire, _sireId);\n    }\n\n    /// @notice Checks to see if two cats can breed together, including checks for\n    ///  ownership and siring approvals. Does NOT check that both cats are ready for\n    ///  breeding (i.e. breedWith could still fail until the cooldowns are finished).\n    ///  TODO: Shouldn't this check pregnancy and cooldowns?!?\n    /// @param _matronId The ID of the proposed matron.\n    /// @param _sireId The ID of the proposed sire.\n    function canBreedWith(uint256 _matronId, uint256 _sireId)\n        external\n        view\n        returns(bool)\n    {\n        require(_matronId > 0);\n        require(_sireId > 0);\n        Kitty storage matron = kitties[_matronId];\n        Kitty storage sire = kitties[_sireId];\n        return _isValidMatingPair(matron, _matronId, sire, _sireId) &&\n            _isSiringPermitted(_sireId, _matronId);\n    }\n\n    /// @dev Internal utility function to initiate breeding, assumes that all breeding\n    ///  requirements have been checked.\n    function _breedWith(uint256 _matronId, uint256 _sireId) internal {\n        // Grab a reference to the Kitties from storage.\n        Kitty storage sire = kitties[_sireId];\n        Kitty storage matron = kitties[_matronId];\n\n        // Mark the matron as pregnant, keeping track of who the sire is.\n        matron.siringWithId = uint32(_sireId);\n\n        // Trigger the cooldown for both parents.\n        _triggerCooldown(sire);\n        _triggerCooldown(matron);\n\n        // Clear siring permission for both parents. This may not be strictly necessary\n        // but it's likely to avoid confusion!\n        delete sireAllowedToAddress[_matronId];\n        delete sireAllowedToAddress[_sireId];\n\n        // Every time a kitty gets pregnant, counter is incremented.\n        pregnantKitties++;\n\n        // Emit the pregnancy event.\n        Pregnant(kittyIndexToOwner[_matronId], _matronId, _sireId, matron.cooldownEndBlock);\n    }\n\n    /// @notice Breed a Kitty you own (as matron) with a sire that you own, or for which you\n    ///  have previously been given Siring approval. Will either make your cat pregnant, or will\n    ///  fail entirely. Requires a pre-payment of the fee given out to the first caller of giveBirth()\n    /// @param _matronId The ID of the Kitty acting as matron (will end up pregnant if successful)\n    /// @param _sireId The ID of the Kitty acting as sire (will begin its siring cooldown if successful)\n    function breedWithAuto(uint256 _matronId, uint256 _sireId)\n        external\n        payable\n        whenNotPaused\n    {\n        // Checks for payment.\n        require(msg.value >= autoBirthFee);\n\n        // Caller must own the matron.\n        require(_owns(msg.sender, _matronId));\n\n        // Neither sire nor matron are allowed to be on auction during a normal\n        // breeding operation, but we don't need to check that explicitly.\n        // For matron: The caller of this function can't be the owner of the matron\n        //   because the owner of a Kitty on auction is the auction house, and the\n        //   auction house will never call breedWith().\n        // For sire: Similarly, a sire on auction will be owned by the auction house\n        //   and the act of transferring ownership will have cleared any oustanding\n        //   siring approval.\n        // Thus we don't need to spend gas explicitly checking to see if either cat\n        // is on auction.\n\n        // Check that matron and sire are both owned by caller, or that the sire\n        // has given siring permission to caller (i.e. matron's owner).\n        // Will fail for _sireId = 0\n        require(_isSiringPermitted(_sireId, _matronId));\n\n        // Grab a reference to the potential matron\n        Kitty storage matron = kitties[_matronId];\n\n        // Make sure matron isn't pregnant, or in the middle of a siring cooldown\n        require(_isReadyToBreed(matron));\n\n        // Grab a reference to the potential sire\n        Kitty storage sire = kitties[_sireId];\n\n        // Make sure sire isn't pregnant, or in the middle of a siring cooldown\n        require(_isReadyToBreed(sire));\n\n        // Test that these cats are a valid mating pair.\n        require(_isValidMatingPair(\n            matron,\n            _matronId,\n            sire,\n            _sireId\n        ));\n\n        // All checks passed, kitty gets pregnant!\n        _breedWith(_matronId, _sireId);\n    }\n\n    /// @notice Have a pregnant Kitty give birth!\n    /// @param _matronId A Kitty ready to give birth.\n    /// @return The Kitty ID of the new kitten.\n    /// @dev Looks at a given Kitty and, if pregnant and if the gestation period has passed,\n    ///  combines the genes of the two parents to create a new kitten. The new Kitty is assigned\n    ///  to the current owner of the matron. Upon successful completion, both the matron and the\n    ///  new kitten will be ready to breed again. Note that anyone can call this function (if they\n    ///  are willing to pay the gas!), but the new kitten always goes to the mother's owner.\n    function giveBirth(uint256 _matronId)\n        external\n        whenNotPaused\n        returns(uint256)\n    {\n        // Grab a reference to the matron in storage.\n        Kitty storage matron = kitties[_matronId];\n\n        // Check that the matron is a valid cat.\n        require(matron.birthTime != 0);\n\n        // Check that the matron is pregnant, and that its time has come!\n        require(_isReadyToGiveBirth(matron));\n\n        // Grab a reference to the sire in storage.\n        uint256 sireId = matron.siringWithId;\n        Kitty storage sire = kitties[sireId];\n\n        // Determine the higher generation number of the two parents\n        uint16 parentGen = matron.generation;\n        if (sire.generation > matron.generation) {\n            parentGen = sire.generation;\n        }\n\n        // Call the sooper-sekret gene mixing operation.\n        uint256 childGenes = geneScience.mixGenes(matron.genes, sire.genes, matron.cooldownEndBlock - 1);\n\n        // Make the new kitten!\n        address owner = kittyIndexToOwner[_matronId];\n        uint256 kittenId = _createKitty(_matronId, matron.siringWithId, parentGen + 1, childGenes, owner);\n\n        // Clear the reference to sire from the matron (REQUIRED! Having siringWithId\n        // set is what marks a matron as being pregnant.)\n        delete matron.siringWithId;\n\n        // Every time a kitty gives birth counter is decremented.\n        pregnantKitties--;\n\n        // Send the balance fee to the person who made birth happen.\n        msg.sender.send(autoBirthFee);\n\n        // return the new kitten's ID\n        return kittenId;\n    }\n}\n",
  "sourcePath": "/Users/blake/Documents/Development/ethereum/kittiesClone/contracts/KittyBreeding.sol",
  "compiler": {
    "name": "solc",
    "version": "0.4.21+commit.dfe3193c.Emscripten.clang"
  },
  "schemaVersion": "2.0.0",
  "updatedAt": "2018-04-07T16:34:57.187Z"
}